:100000000040002095030000D5030000D703000046
:1000100000000000000000000000000000000000E0
:10002000000000000000000000000000D9030000F4
:100030000000000000000000DB030000DD03000002
:10004000DF030000DF030000DF030000DF03000028
:10005000DF03000000000000DF030000DF030000FA
:10006000DF030000DF030000DF030000DF03000008
:10007000DF030000DF030000DF030000DF030000F8
:10008000DF030000DF030000DF030000DF030000E8
:10009000DF030000DF030000DF030000DF030000D8
:1000A000DF030000DF03000000000000000000008C
:1000B0000000000000000000000000000000000040
:1000C00010B5064C2378002B07D1054B002B02D02E
:1000D000044800E000BF0123237010BD6800002029
:1000E0000000000000040000044B10B5002B03D0FA
:1000F0000349044800E000BF10BDC04600000000F6
:100100006C00002000040000164B002B00D1144BA3
:100110009D46402292029A1A924600218B460F4633
:100120001348144A121A00F065F80F4B002B00D048
:1001300098470E4B002B00D0984700200021040068
:100140000D000D48002802D00C4800E000BF00F070
:100150002DF82000290000F0C9F800F011F8C04681
:100160000000080000400020000000000000000027
:100170006800002084000020000000000000000053
:10018000084B10B50400002B02D0002100E000BF96
:10019000054B1868836A002B00D09847200000F0B8
:1001A00031F8C04600000000F803000070B50026DA
:1001B0000C4D0D4C641BA410A64209D1002600F082
:1001C0000FF90A4D0A4C641BA410A64205D170BD5C
:1001D000B300EB5898470136EEE7B300EB58984769
:1001E0000136F2E76000002060000020600000207F
:1001F0006400002003001218934200D17047197068
:100200000133F9E7FEE7C0462E4B1B78012B00D0E7
:1002100070472D4B1B681B07FAD1F0222B4B1B6834
:10022000134027D12A4B1B6813422BD0264B1B6847
:100230001B07EDD1F022254B1B681340402B2DD01E
:10024000F022224B1B681340A02B01D0D02BDFD112
:10025000F0231F4A12681A42DAD11E4A1368012B92
:1002600004D01D4B13601368012BFCD1C0221B4B23
:100270001A60CDE7102B01D0302BDBD1144B1B685B
:100280001342D7D1164B174A1A608022164B12021E
:100290001A600C4B1B78012BC8D0B9E70C4B1B68BC
:1002A0001342CDD18022C1230121DB00D205D150E0
:1002B000044B1B78012BABD1034B1B681B07BFD032
:1002C000A6E7C046E00F00F0E40F00F0E80F00F0F2
:1002D000EC0F00F000EC06407593000014EC0640B3
:1002E00004050040DFFF07C0186C0040F8B5A020EF
:1002F000C8250023012403216D02C0050133202BF2
:100300000BD02A001A411442F8D01A00C132FF3231
:10031000920001331150202BF3D1A0250B4F0C4E2E
:10032000ED0500240122395DAB598A40A12110005E
:10033000C90098436850FA201340064A4000AB5069
:10034000013400F009F8032CECD1EAE7FC030000CB
:10035000040500000C05000082B00190019B002BF9
:1003600014D0019B0A48013B01930138C046C046A6
:10037000C046C046C046C046C046C046C046C0464D
:10038000C046C046F1D1019B002BEAD102B07047B4
:10039000E703000003210A4802680A430260094893
:1003A00002680A4302600849084A094B9B1A03DDA8
:1003B000043BC858D050FBDCFFF726FFFFF7A4FE34
:1003C00024050040540500400C04000000000020FB
:1003D00068000020FEE7FEE7FEE7FEE7FEE7FEE737
:1003E000F8B5C046F8BC08BC9E467047F8B5C04694
:1003F000F8BC08BC9E46704700000020100C0F009F
:0404000000000000F8
:0804040004FDFF7F0100000070
:10040C0000000000000000000000000000000000E0
:10041C0000000000000000000000000000000000D0
:10042C0000000000000000000000000000000000C0
:10043C0000000000000000000000000000000000B0
:10044C0000000000000000000000000000000000A0
:10045C000000000000000000000000000000000090
:08046C00E9000000C1000000DE
:040000030000039561
:00000001FF
