:10000000000001209D0B0000C50B0000C70B000085
:10001000C90B0000CB0B0000CD0B0000000000005E
:10002000000000000000000000000000CF0B0000F6
:10003000D10B000000000000D30B0000D50B000026
:10004000D70B0000D70B0000D70B0000D70B000028
:10005000D70B0000D70B0000D70B0000D70B000018
:10006000D70B0000D70B0000D70B0000D70B000008
:10007000D70B0000D70B0000D70B0000D70B0000F8
:10008000D70B0000D70B0000D70B0000D70B0000E8
:10009000D70B0000D70B0000D70B0000D70B0000D8
:1000A000D70B0000D70B0000D70B0000D70B0000C8
:1000B000D70B0000D70B000000000000000000007C
:1000C000D70B0000D70B0000D70B0000D70B0000A8
:1000D000D70B0000D70B0000D70B0000000000007A
:1000E0000000000000000000000000000000000010
:1000F0000000000000000000000000000000000000
:1001000000000000000000000000000000000000EF
:1001100000000000000000000000000000000000DF
:1004000010B5054C237833B9044B13B10448AFF34E
:1004100000800123237010BD6C000020000000004C
:10042000F80B000008B5034B1BB103490348AFF3B9
:10043000008008BD0000000070000020F80B0000E4
:10044000154B002B08BF134B9D46A3F5803A0021A6
:100450008B460F461348144A121A00F063F80F4BEC
:10046000002B00D098470E4B002B00D0984700205F
:10047000002104000D000D48002802D00C48AFF305
:10048000008000F02BF82000290000F0EBFA00F0CB
:1004900011F800BF0000080000000120000000006B
:1004A000000000006C000020880000200000000018
:1004B0000000000008B5074B044613B10021AFF35C
:1004C0000080054B1868836A03B19847204600F006
:1004D00031F800BF00000000F00B000070B50D4EB9
:1004E0000D4CA41BA4100025A54209D10B4E0C4CA9
:1004F00000F072FBA41BA4100025A54205D170BD1D
:1005000056F8253098470135EEE756F825309847DC
:100510000135F2E764000020640000206400002040
:100520006800002002440346934200D1704703F85C
:10053000011BF9E7FEE700BF80B400AFBFF34F8FA8
:10054000054BDB6803F4E0620349044B1343CB60C3
:10055000BFF34F8F00BFFDE700ED00E00400FA0598
:1005600080B400AF034B044A1A6000BFBD465DF87B
:10057000047B7047600000200090D00380B500AF7E
:1005800000F028F90346002B02D0854B854A1A60FB
:1005900000F042F90346002B06D0834B1B685B0B2F
:1005A000824A03F00703136000F068F90346002B4A
:1005B00005D07F4BDB687E4A23F08073D36000F068
:1005C0007FF90346002B0ED04FF080430022C3F882
:1005D0000C214FF080430022C3F810214FF08043DC
:1005E0000022C3F8382500F09DF90346002B02D005
:1005F000704B03221A6000F0B7F90346002B0BD0B2
:100600006D4B05221A606D4B01221A606C4B002263
:100610001A606C4B3F221A6000F0C8F90346002BA9
:1006200076D04FF08053684AD3F80434C2F82035AE
:100630004FF08053644AD3F80834C2F824354FF0A1
:100640008053614AD3F80C34C2F828354FF08053F8
:100650005D4AD3F81034C2F82C354FF080535A4A13
:10066000D3F81434C2F830354FF08053564AD3F8DB
:100670001834C2F834354FF08053534AD3F81C3441
:10068000C2F840354FF080534F4AD3F82034C2F8B7
:1006900044354FF080534C4AD3F82434C2F84835DF
:1006A0004FF08053484AD3F82834C2F84C354FF005
:1006B0008053454AD3F82C34C2F850354FF080535C
:1006C000414AD3F83034C2F854354FF080533E4A93
:1006D000D3F83434C2F860354FF080533A4AD3F837
:1006E0003834C2F864354FF08053374AD3F83C347D
:1006F000C2F868354FF08053334AD3F84034C2F81B
:100700006C354FF08053304AD3F84434C2F870351A
:100710002E4BD3F888302D4A43F47003C2F888304A
:10072000BFF34F8FBFF36F8F4FF01023D3F800321A
:10073000002B05DB4FF01023D3F80432002B2BDA0B
:10074000234B0122C3F8042500BF214BD3F800340A
:10075000002BFAD04FF010231522C3F8002200BF5F
:100760001B4BD3F80034002BFAD04FF01023152286
:10077000C3F8042200BF164BD3F80034002BFAD084
:10078000134B0022C3F8042500BF114BD3F80034EB
:10079000002BFAD0FFF7D0FEFFF7E2FE00BF80BDCE
:1007A00074C007400DF0ADBA440200103C05004093
:1007B000F0ED00E0A00500401056004088560040D3
:1007C000185600401456004000C0004000ED00E004
:1007D00000E0014080B400AF0C4B1B68DBB2062B7D
:1007E0000DD10B4B1B6803F00F03002B07D1094BF6
:1007F0001B6803F0F003302B01D1012300E000233C
:100800001846BD465DF8047B704700BFE00F00F05E
:10081000E40F00F0E80F00F080B400AF144B1B6849
:10082000DBB2062B1DD1134B1B6803F00F03002B0B
:1008300017D1114B1B6803F0F003302B01D10123BA
:1008400010E00D4B1B6803F0F003402B01D1012396
:1008500008E0094B1B6803F0F003502B01D1012382
:1008600000E000231846BD465DF8047B704700BFDA
:10087000E00F00F0E40F00F0E80F00F080B400AFEC
:100880000C4B1B68DBB2062B0DD10B4B1B6803F026
:100890000F03002B07D1094B1B6803F0F003302B2B
:1008A00001D1012300E000231846BD465DF8047B1A
:1008B000704700BFE00F00F0E40F00F0E80F00F019
:1008C00080B400AF144B1B68DBB2062B1DD1134B59
:1008D0001B6803F00F03002B17D1114B1B6803F0AB
:1008E000F003302B01D1012310E00D4B1B6803F006
:1008F000F003402B01D1012308E0094B1B6803F0F2
:10090000F003502B01D1012300E000231846BD461F
:100910005DF8047B704700BFE00F00F0E40F00F0CB
:10092000E80F00F080B400AF0C4B1B68DBB2062B65
:100930000DD10B4B1B6803F00F03002B07D1094BA4
:100940001B6803F0F003302B01D1012300E00023EA
:100950001846BD465DF8047B704700BFE00F00F00D
:10096000E40F00F0E80F00F080B400AF0C4B1B6800
:10097000DBB2062B0DD10B4B1B6803F00F03002BD2
:1009800007D1094B1B6803F0F003302B01D1012381
:1009900000E000231846BD465DF8047B704700BFA9
:1009A000E00F00F0E40F00F0E80F00F080B400AFBB
:1009B0000C4B1B68DBB2062B0DD10B4B1B6803F0F5
:1009C0000F03002B07D1094B1B6803F0F003502BDA
:1009D00001D1012300E000231846BD465DF8047BE9
:1009E000704700BFE00F00F0E40F00F0E80F00F0E8
:1009F00080B483B000AF7860084611461A460346BB
:100A0000FB700B46BB7013467B70FA78BB785B00BB
:100A10001A437B789B001A433B7C1B021A433B7DA5
:100A20001B044FF0A0411A437B6803F5E07341F8C3
:100A3000232000BF0C37BD465DF8047B704780B5AE
:100A400084B002AF78600023019300230093002359
:100A5000012201217868FFF7CBFF00BF0837BD46B0
:100A600080BD000080B584B000AF0023FB600EE0C5
:100A70004FF4F012FB6842FA03F303F00103002B7A
:100A800002D0F868FFF7DBFFFB680133FB60FB680F
:100A90001F2BEDD90023BB6028E04FF0A043D3F813
:100AA00004357B60134ABB6813441B781A46012344
:100AB000934019467B68DB434FF0A0420B40C2F8DD
:100AC00008350C4ABB6813441B781A46012393402F
:100AD00019464FF0A0427B680B40C2F80C354FF42A
:100AE000FA7000F009F8BB680133BB60BB68032BE8
:100AF000D3DDCFE7F40B000080B485B000AF7860A1
:100B000043E07B68013B7B6040F2E733FB60FB68BE
:100B10001846013800BF00BF00BF00BF00BF00BFC4
:100B200000BF00BF00BF00BF00BF00BF00BF00BFCD
:100B300000BF00BF00BF00BF00BF00BF00BF00BFBD
:100B400000BF00BF00BF00BF00BF00BF00BF00BFAD
:100B500000BF00BF00BF00BF00BF00BF00BF00BF9D
:100B600000BF00BF00BF00BF00BF00BF00BF00BF8D
:100B700000BF00BF00BF00BF00BF00BF00BF00BF7D
:100B800000BF00BF00BF00BFC3D17B68002BB8D13E
:100B900000BF1437BD465DF8047B70470649074A1D
:100BA000074B9B1A03DD043BC858D050FBDCFFF712
:100BB000E5FCFFF745FC0000040C000000000020ED
:100BC0006C000020FEE7FEE7FEE7FEE7FEE7FEE73B
:100BD000FEE7FEE7FEE7FEE7F8B500BFF8BC08BC9D
:100BE0009E467047F8B500BFF8BC08BC9E467047EB
:0C0BF0000000002011121314000000008F
:080BFC0044F8FF7F0100000036
:100C040000000000000000000000000000000000E0
:100C140000000000000000000000000000000000D0
:100C240000000000000000000000000000000000C0
:100C340000000000000000000000000000000000B0
:100C440000000000000000000000000000000000A0
:100C54000000000000000000000000000000000090
:0C0C64000090D0032504000001040000F3
:0400000300000B9D51
:00000001FF
