:1000000000800020DD08000005090000070900004D
:10001000090900000B0900000D09000000000000A4
:100020000000000000000000000000000F090000B8
:10003000110900000000000013090000150900006C
:100040001709000017090000170900001709000030
:100050001709000017090000170900001709000020
:100060001709000017090000170900001709000010
:100070001709000017090000170900001709000000
:1000800017090000170900001709000017090000F0
:1000900017090000170900001709000017090000E0
:1000A00017090000170900001709000017090000D0
:1000B0001709000017090000000000000000000000
:1000C00017090000170900001709000017090000B0
:1000D00017090000170900001709000000000000C0
:1000E0000000000000000000000000000000000010
:1000F0000000000000000000000000000000000000
:1001000000000000000000000000000000000000EF
:1001100000000000000000000000000000000000DF
:1004000010B5054C237833B9044B13B10448AFF34E
:1004100000800123237010BD6C000020000000004C
:100420003809000008B5034B1BB103490348AFF37B
:10043000008008BD000000007000002038090000A6
:10044000154B002B08BF134B9D46A3F5803A0021A6
:100450008B460F461348144A121A00F063F80F4BEC
:10046000002B00D098470E4B002B00D0984700205F
:10047000002104000D000D48002802D00C48AFF305
:10048000008000F02BF82000290000F0ABF900F00C
:1004900011F800BF000008000080002000000000EC
:1004A000000000006C000020880000200000000018
:1004B0000000000008B5074B044613B10021AFF35C
:1004C0000080054B1868836A03B19847204600F006
:1004D00031F800BF000000003009000070B50D4E7B
:1004E0000D4CA41BA4100025A54209D10B4E0C4CA9
:1004F00000F012FAA41BA4100025A54205D170BD7E
:1005000056F8253098470135EEE756F825309847DC
:100510000135F2E764000020640000206400002040
:100520006800002002440346934200D1704703F85C
:10053000011BF9E7FEE700BF30B4974B1B78062B91
:100540001BD0964AD2F8883043F47003C2F8883042
:10055000BFF34F8FBFF36F8F4FF01023D3F80022FC
:10056000002AC0F2E880D3F80432002BC0F2E38006
:100570008B4B8C4A1A6030BC70478B4B1B681D0735
:10058000DFD18A4B1B6803F0F003302B02D1884B7C
:10059000884A1A60854B1B6803F0F002302A70D03D
:1005A00003F0E003402B6CD0804B1B6803F0F0039A
:1005B000302B00F08B807D4B1B6803F0F002302A5B
:1005C00070D003F0E003402B6CD0784B1B6803F035
:1005D000F003302B00F0A180744B1B6803F0F00394
:1005E000302B00F08380714B1B6803F0F003502B1D
:1005F000A7D14FF08052704BD2F80414C3F82015E5
:10060000D2F80814C3F82415D2F80C14C3F828152E
:10061000D2F81014C3F82C15D2F81414C3F83015FE
:10062000D2F81814C3F83415D2F81C14C3F84015C6
:10063000D2F82014C3F84415D2F82414C3F848158E
:10064000D2F82814C3F84C15D2F82C14C3F850155E
:10065000D2F83014C3F85415D2F83414C3F8601526
:10066000D2F83814C3F86415D2F83C14C3F86815EE
:10067000D2F84014C3F86C15D2F84424C3F870259E
:100680005FE74E4B444A1B6812784D49C3F342332F
:10069000062A0B607FF455AF434B1B681C077FF4A1
:1006A00050AF81E73C4B1B784FF080420021062B76
:1006B000C2F80C11C2F81011C2F838157FF441AF1E
:1006C000394B1B6819077FF43CAF7EE73D4A32493E
:1006D000D368097823F080730629D3607FF431AFA3
:1006E000314B1B6818077FF42CAF64E72A4B364C5C
:1006F0001A7836493648374B0525256001250D60A7
:1007000000243F21062A046019607FF41AAF264BAB
:100710001B681B077FF415AF65E71F4B2E4A1B783C
:100720000321062B11607FF40CAF1F4B1B681A07C7
:100730007FF407AF50E7294B0122C3F80425D3F813
:100740000024002AFBD04FF0102315222349C3F8C0
:100750000022D1F80034002BFBD04FF010221521DD
:100760001E4BC2F80412D3F80024002AFBD000224A
:100770001A49C3F80425D1F80034002BFBD0BFF38D
:100780004F8F0649164BCA6802F4E0621343CB60F0
:10079000BFF34F8F00BFFDE7E00F00F000ED00E07A
:1007A000600000200090D003E40F00F0E80F00F09C
:1007B00074C007400DF0ADBA00C000404402001004
:1007C0003C050040F0ED00E0105600408856004027
:1007D0001856004014560040A005004000E00140BB
:1007E0000400FA05F8B54FF4F01000234FF0A041D3
:1007F000032203E0ED0748BF41F824200133202BFA
:1008000040FA03F503F5E074F4D10C4F4FF0A04526
:1008100001260B4C14F8013BD5F8042506FA03F326
:1008200023EA02011340C5F808154FF4FA70C5F821
:100830000C3500F007F8BC42ECD1EAE738090000BB
:100840003409000082B00190019B002B43D0019B32
:10085000013B019340F2E730013800BF00BF00BF09
:1008600000BF00BF00BF00BF00BF00BF00BF00BF90
:1008700000BF00BF00BF00BF00BF00BF00BF00BF80
:1008800000BF00BF00BF00BF00BF00BF00BF00BF70
:1008900000BF00BF00BF00BF00BF00BF00BF00BF60
:1008A00000BF00BF00BF00BF00BF00BF00BF00BF50
:1008B00000BF00BF00BF00BF00BF00BF00BF00BF40
:1008C00000BF00BF00BF00BF00BF00BF00BFC3D15B
:1008D000019B002BBBD102B0704700BF0649074AFD
:1008E000074B9B1A03DD043BC858D050FBDCFFF7D5
:1008F00023FEFFF7A5FD00004409000000000020D2
:100900006C000020FEE7FEE7FEE7FEE7FEE7FEE7FD
:10091000FEE7FEE7FEE7FEE7F8B500BFF8BC08BC5F
:100920009E467047F8B500BFF8BC08BC9E467047AD
:0C09300000000020111213140000000051
:08093C0004FBFF7F0100000035
:1009440000000000000000000000000000000000A3
:100954000000000000000000000000000000000093
:100964000000000000000000000000000000000083
:100974000000000000000000000000000000000073
:100984000000000000000000000000000000000063
:100994000000000000000000000000000000000053
:0C09A4000090D0032504000001040000B6
:04000003000008DD14
:00000001FF
