:020000021000EC
:10C00000000001205D7B0200857B0200877B02002F
:10C01000897B02008B7B02008D7B02000000000008
:10C020000000000000000000000000008F7B020004
:10C03000917B020000000000937B0200957B0200D0
:10C04000977B0200977B0200B5EC0100977B020012
:10C05000977B0200977B0200BDE40100977B020002
:10C06000977B0200977B0200977B0200977B020080
:10C07000977B0200977B0200977B0200977B020070
:10C08000977B020035D50100977B0200977B020069
:10C0900075D50100977B0200817A0200977B020030
:10C0A000977B0200977B0200977B0200977B020040
:10C0B000977B0200977B0200000000000000000058
:10C0C000977B0200977B0200977B0200977B020020
:10C0D000977B0200977B0200977B02000000000024
:10C0E0000000000000000000000000000000000050
:10C0F0000000000000000000000000000000000040
:10C10000000000000000000000000000000000002F
:10C11000000000000000000000000000000000001F
:10C4000010B5054C237833B9044B13B10448AFF38E
:10C4100000800123237010BD0421002000000000D3
:10C42000707D020008B5034B1BB103490348AFF30D
:10C43000008008BD0000000008210020707D02007F
:10C44000154B002B08BF134B9D46A3F5803A0021E6
:10C450008B460F461348144A121A00F063F80F4B2C
:10C46000002B00D098470E4B002B00D0984700209F
:10C47000002104000D000D48002802D00C48AFF345
:10C48000008000F02BF82000290005F034FD00F0BA
:10C4900011F800BF000008000000012000000000AB
:10C4A0000000000004210020902C0020000000006B
:10C4B0000000000008B5074B044613B10021AFF39C
:10C4C0000080054B1868836A03B19847204600F046
:10C4D00031F800BF00000000287C020070B50D4E4E
:10C4E0000D4CA41BA4100025A54209D10B4E0C4CE9
:10C4F0000BF08EFBA41BA4100025A54205D170BD36
:10C5000056F8253098470135EEE756F8253098471C
:10C510000135F2E7FC200020FC200020FC20002058
:10C520000021002002440346934200D1704703F8E3
:10C53000011BF9E7FEE700BF00B589B001900023B9
:10C540008DF81F3051E02E4B1A689DF81F30DB002C
:10C5500013440693069B1B781A46012393400593C8
:10C56000284B1A68059B1340002B39D0059BDA43F2
:10C57000244B1B681340234A1360069B1B78184604
:10C5800001F08CFF03468DF81330069B1B781A468A
:10C59000012393401A461C4B1B6813409DF813203F
:10C5A000069909788A4093421AD19DF81330069A69
:10C5B0005278012A0CBF01220022D2B293420CBF52
:10C5C00001230023DBB20393069B5B68002B07D09B
:10C5D000069B5B68069A12780399C9B21046984781
:10C5E0009DF81F3001338DF81F30084B1B789DF8E4
:10C5F0001F209A42A7D300BF09B05DF804FB00BF1B
:10C6000020210020502100204C2100202421002046
:10C6100000B585B001900B468DF803300122019BD7
:10C6200002FA03F303931E4B184601F0A5F802909B
:10C63000029B002B30D11B4B1A68039B1340002B2D
:10C6400022D1019801F02AFF0346002B06D0164B99
:10C650001A68039B1343144A136006E0039BDA43F2
:10C66000114B1B681340104A13600E4B1A68039B52
:10C6700013430C4A13600A480C4B1B6800221946EE
:10C6800001F044F8029008E0039BDA43054B1B6875
:10C690001340044A136000E000BF05B05DF804FBDE
:10C6A0002C210020502100204C2100202821002096
:10C6B00000B589B003900B4601928DF80B30019BB9
:10C6C000042B01D8072351E001F00AFE034683F052
:10C6D0000103DBB2002B07D001F0C2FD0790079BDE
:10C6E000002B01D0079B41E0224A039B1360224AA2
:10C6F0009DF80B301370214A019B1360204B0022E0
:10C700001A60204B00221A6023E09DF80B30DB00FA
:10C71000039A1344069303238DF8143000238DF8F5
:10C72000153000238DF8163000238DF81730069B46
:10C730009B788DF81530069B1B78184605AB124A7E
:10C74000194601F0D9FD0790079B002B01D0079BEC
:10C750000CE09DF80B305A1E8DF80B20002BD4D125
:10C760000A4A00210A4800F089FF0346184609B02A
:10C770005DF804FB20210020242100202821002036
:10C780004C2100205021002011C6010039C50100B4
:10C790002C7C020000B583B0002301930CE00C4B0D
:10C7A0001A68019BDB0013441B780121184601F035
:10C7B000FDFD019B01330193064B1B781A46019B3B
:10C7C0009342ECD30023184603B05DF804FB00BF8E
:10C7D000202100202421002000B587B001900023F3
:10C7E000ADF80C3000230493019B059303AB1A466C
:10C7F000002144F2010000F017F800BF07B05DF817
:10C8000004FB0000BFF34F8F054BDB6803F4E062CD
:10C810000349044B1343CB60BFF34F8F00BFFDE7C9
:10C8200000ED00E00400FA0500B585B00390029128
:10C830000192FFF7E7FF00BF05B05DF804FB0000C1
:10C8400082B003468DF807309DF8073003F01F02D1
:10C8500005499DF907305B09012000FA02F241F811
:10C86000232000BF02B0704700E100E082B0034621
:10C870008DF807309DF8073003F01F0206499DF937
:10C8800007305B09012000FA02F2203341F823202F
:10C8900000BF02B0704700BF00E100E082B0034675
:10C8A0008DF807309DF8073003F01F0206499DF907
:10C8B00007305B09012000FA02F2403341F82320DF
:10C8C00000BF02B0704700BF00E100E082B0034645
:10C8D0008DF807309DF8073003F01F0206499DF9D7
:10C8E00007305B09012000FA02F2603341F823208F
:10C8F00000BF02B0704700BF00E100E082B0034615
:10C9000000918DF807309DF90730002B0CDA009B61
:10C91000DAB20C499DF8073003F00F03043B5201D3
:10C92000D2B20B441A7609E0009BDAB206499DF9AF
:10C9300007305201D2B20B4483F8002300BF02B08B
:10C94000704700BF00ED00E000E100E082B0034668
:10C950008DF807309DF90730002B0BDA0B4A9DF854
:10C96000073003F00F03043B13441B7EDBB25B096B
:10C97000DBB208E0064A9DF90730134493F8003310
:10C98000DBB25B09DBB2184602B0704700ED00E095
:10C9900000E100E082B00190019B03F00303002B53
:10C9A0000CBF01230023DBB2184602B0704700B56C
:10C9B00085B0EFF305830193019BC3F30803039351
:10C9C000039B002B0AD0039B103B0293029B5BB29C
:10C9D0001846FFF7BBFF0346DBB200E00F23184603
:10C9E00005B05DF804FB000000B583B00190064A75
:10C9F000019BC2F8083506211120FFF77FFF00BF19
:10CA000003B05DF804FB00BF0010014000B583B027
:10CA10002C4B4FF48032C3F844232A4B4FF480321E
:10CA2000C3F804231120FFF751FF1120FFF708FF7F
:10CA3000244B01221A602F230193019B18460138D1
:10CA400000BF00BF00BF00BF00BF00BF00BF00BFEE
:10CA500000BF00BF00BF00BF00BF00BF00BF00BFDE
:10CA600000BF00BF00BF00BF00BF00BF00BF00BFCE
:10CA700000BF00BF00BF00BF00BF00BF00BF00BFBE
:10CA800000BF00BF00BF00BF00BF00BF00BF00BFAE
:10CA900000BF00BF00BF00BF00BF00BF00BF00BF9E
:10CAA00000BF00BF00BF00BF00BF00BF00BF00BF8E
:10CAB00000BF00BFC3D1044B01221A7000BF03B0F6
:10CAC0005DF804FB001001407421002000B583B024
:10CAD0001120FFF7CBFE4D4B4FF48032C3F84823B3
:10CAE0004A4B4FF48032C3F80823484B01225A6066
:10CAF0002F230193019B1846013800BF00BF00BFE0
:10CB000000BF00BF00BF00BF00BF00BF00BF00BF2D
:10CB100000BF00BF00BF00BF00BF00BF00BF00BF1D
:10CB200000BF00BF00BF00BF00BF00BF00BF00BF0D
:10CB300000BF00BF00BF00BF00BF00BF00BF00BFFD
:10CB400000BF00BF00BF00BF00BF00BF00BF00BFED
:10CB500000BF00BF00BF00BF00BF00BF00BF00BFDD
:10CB600000BF00BF00BF00BF00BF00BF00BFC3D1F8
:10CB7000264B01229A60264B00221A602F23009335
:10CB8000009B1846013800BF00BF00BF00BF00BFB8
:10CB900000BF00BF00BF00BF00BF00BF00BF00BF9D
:10CBA00000BF00BF00BF00BF00BF00BF00BF00BF8D
:10CBB00000BF00BF00BF00BF00BF00BF00BF00BF7D
:10CBC00000BF00BF00BF00BF00BF00BF00BF00BF6D
:10CBD00000BF00BF00BF00BF00BF00BF00BF00BF5D
:10CBE00000BF00BF00BF00BF00BF00BF00BF00BF4D
:10CBF00000BF00BF00BF00BF00BFC3D1054B002274
:10CC00001A7000BF03B05DF804FB00BF00100140C4
:10CC10006021002074210020024BD3F8043518460F
:10CC2000704700BF0010014082B001900091019A4E
:10CC3000009BD31A23F07F43184602B070470000D0
:10CC400082B00190034A019BC2F8403500BF02B098
:10CC5000704700BF0010014086B00190284B1B6850
:10CC6000002B03D1264A019B136045E0019B1A6803
:10CC7000234B1B681B689A4210D8214B1B6819680C
:10CC8000019B1A681E4B1B688A1A1A601C4B1A6893
:10CC9000019BDA611A4A019B13602DE0019B1B681E
:10CCA0000393174B1B680593154B1B68049309E00E
:10CCB000049B1B68039AD31A0393049B0593049B5C
:10CCC000DB690493049B002B04D0049B1B68039A2C
:10CCD0009A42EDD8049B002B05D0049B1A68039B55
:10CCE000D21A049B1A60019B039A1A60019B049A52
:10CCF000DA61059B019ADA6100BF06B0704700BF98
:10CD00005C21002086B00190214B1B680593059B98
:10CD1000049308E0049A019B9A4208D0049B05936F
:10CD2000049BDB690493049B002BF3D100E000BF5C
:10CD3000049B002B29D0059A049B9A4211D1144BD5
:10CD40001B68DB69124A1360114B1B68002B08D16A
:10CD5000104B01229A60104B00221A600F4B0122E7
:10CD60001A70049B1B680393049BDA69059BDA61C4
:10CD7000059BDB690493049B002B07D0049B1A6876
:10CD8000039B1A44049B1A6000E000BF06B0704782
:10CD90005C2100200010014060210020752100204E
:10CDA00008B51120FFF77AFD00BF08BD08B51420B3
:10CDB000FFF774FD00BF08BD00B585B00190104BB2
:10CDC0001B68002B11D00E4B1B68019A5069019A09
:10CDD0009269114698470390039B0293029B002B94
:10CDE00009D00298FFF7F8FC05E0019B5B69019A06
:10CDF00092691046984700BF05B05DF804FB00BF7C
:10CE00007021002000B585B02B4B1B68002B4ED045
:10CE100000230193FFF700FF0246284B1B681946C9
:10CE20001046FFF701FF0290234B1B6803931DE0A0
:10CE3000039B1B68029A9A421CD3039B1B68029AAD
:10CE4000D31A0293039B1B68019A13440193039B1B
:10CE50000093039BDB690393009B1B7C002B05D095
:10CE6000009B00221A740098FFF7A6FF039B002B7B
:10CE7000DED100E000BF124B1A78124B1B789A42A9
:10CE80000CD1104B1B780133DAB20E4B1A700D4BDC
:10CE90001B78022B02D10B4B00221A70094B1B7816
:10CEA0001946094A019B42F82130FFF77FFF00BF76
:10CEB00005B05DF804FB00BF5C210020602100206C
:10CEC0006C2100206D2100206421002082B001909F
:10CED000184B1A78184B1B789A4223D0154B1B78A5
:10CEE0000133DAB2134B1A70124B1B78022B02D1AA
:10CEF000104B00221A700F4B1B781A460F4B53F839
:10CF00002220019B1A60019B1A680D4B1B68134479
:10CF10000B4A13600A4B1B6823F07F43084A1360D7
:10CF2000012303E0019B00221A600023184602B08F
:10CF3000704700BF6C2100206D210020642100207B
:10CF40006021002000B587B0304B1B680493304B44
:10CF50001B788DF8173046E02E4B1A689DF8173075
:10CF6000DB0013440393039B1B788DF8163034E0E9
:10CF7000039B59689DF8162013465B001344DB00A1
:10CF80000B4402939DF8163001338DF81630039B45
:10CF90009B789DF816209A4202D100238DF8163016
:10CFA000029B1B78022B02D0032B10D014E0029BB3
:10CFB0005B681846FFF7A6FE0FE0144B1B68019351
:10CFC000019B00221A74019BDB69104A13600F4B0E
:10CFD0001B68002BF1D100E000BF039B5B789DF83C
:10CFE00016209A42C4D19DF817305A1E8DF817208A
:10CFF000002BB1D1054B1B68049A9A4214BF012340
:10D000000023DBB2184607B05DF804FB5C2100206A
:10D01000542100205821002088B0039002910192F1
:10D020000023079338E0204B1B680693069B1B6880
:10D03000039A9A4206D2069B1A68039BD21A069B51
:10D040001A602DE0069B1B68039AD31A0393069B74
:10D050001B68079A13440793069B00221A60124B21
:10D060001B680593069BDB690F4A1360069BDB6810
:10D07000002B11D0029A079B134423F07F42069B9A
:10D080005A60069BDA68069B9A60019B1A68069BA9
:10D09000DA61019B059A1A60034B1B68002BC2D111
:10D0A00000BF08B0704700BF5C21002000B589B008
:10D0B00001905A4B1B680593594B1B788DF81F3014
:10D0C00098E0584B1A689DF81F30DB001344049316
:10D0D00085E0019B002B05D0019B0693069BDB6935
:10D0E00001933CE0049B5A68049B1B7819460B464D
:10D0F0005B000B44DB0013440393049B1B78013358
:10D10000DAB2049B1A70049B1A78049B9B789A42AB
:10D1100002D1049B00221A70039B5B680693039B59
:10D120001B78012B5BD1069B1B7C002B00D056E0AB
:10D13000039B9A68069B5A60039BDA68069B9A6079
:10D14000039B1A69069BDA60039B5A69069B9A61E6
:10D15000354B1B78002B02D0069B00225A60069BA1
:10D160005A68324B1B68D31A23F07F43304A9342EC
:10D170000ED8069B5A682D4B1B6819461046FFF7C0
:10D1800053FD0246069B9B681A44069B1A6017E0F3
:10D19000264B1A68069B5B6819461046FFF744FD4C
:10D1A0000290069B9B68029A9A4206D2069B9A6856
:10D1B000029BD21A069B1A6002E0069B00221A60AC
:10D1C000069B00225A60069B00229A60069B012261
:10D1D0001A74069B0022DA610698FFF73DFD019B59
:10D1E000002B7FF476AF049B1A78049B5B789A42FD
:10D1F0007FF46FAF9DF81F305A1E8DF81F20002B53
:10D200007FF45FAF054B1B68059A9A4214BF012358
:10D210000023DBB2184609B05DF804FB5C21002056
:10D220005421002058210020752100206021002079
:10D23000FEFF7F0010B588B00190464B1B68002BA5
:10D2400000F08280434B1B681B680793FFF7E4FCE8
:10D250000690414B1B68059305990698FFF7E4FC7F
:10D260000346033304933D4B1B7883F00103DBB289
:10D27000002B01D0FFF7CAFB049A079B934238BFEB
:10D280001346059A13440593059B23F07F430593AA
:10D290000598FFF7D5FCFFF7BFFC039006990398AC
:10D2A000FFF7C2FC0346DC1C06990598FFF7BCFC9F
:10D2B00003469C424AD9FFF7AFFC03461846FFF7E6
:10D2C000BFFC2F230293029B1846013800BF00BF0A
:10D2D00000BF00BF00BF00BF00BF00BF00BF00BF56
:10D2E00000BF00BF00BF00BF00BF00BF00BF00BF46
:10D2F00000BF00BF00BF00BF00BF00BF00BF00BF36
:10D3000000BF00BF00BF00BF00BF00BF00BF00BF25
:10D3100000BF00BF00BF00BF00BF00BF00BF00BF15
:10D3200000BF00BF00BF00BF00BF00BF00BF00BF05
:10D3300000BF00BF00BF00BF00BF00BF00BF00BFF5
:10D34000C3D1FFF72DFD01E0FFF7C0FB00BF08B020
:10D3500010BD00BF5C21002060210020742100204E
:10D3600000B587B0002301931B4B1B6804931B4B34
:10D370001B6803936B461846FFF7A8FD03468DF81C
:10D380000B30FFF7DFFD03468DF817309DF80B30AB
:10D39000002B08D0009B01AA04991846FFF73CFE19
:10D3A00001238DF81730019B1846FFF77FFE0346D7
:10D3B000002B02D001238DF817309DF81730002B79
:10D3C00002D00398FFF736FF054B00221A7000BF0A
:10D3D00007B05DF804FB00BF602100205C21002045
:10D3E0007521002082B001900B468DF80330019B1F
:10D3F0009DF803205A7000BF02B0704784B00190BE
:10D400000091019B5B7801338DF80F30019B9B7875
:10D410009DF80F209A4202D100238DF80F30019B16
:10D420001B789DF80F209A4201D100230FE0009B4A
:10D430009DF80F201A70019B5A68019B5B78194672
:10D440000B465B000B44DB0013440293029B18461F
:10D4500004B0704700B587B0039002910192009329
:10D460001B4B1A68039BDB0013440DF1130211469A
:10D470001846FFF7C3FF0590059B002B01D104233D
:10D4800021E0059B01221A70059B029A5A60FFF762
:10D49000C3FB0246059B9A60059B019ADA60059BD7
:10D4A000009A1A61059B089A5A61094B1A68039BF6
:10D4B000DB0013449DF8132011461846FFF792FF36
:10D4C000FFF774FC0023184607B05DF804FB00BFAB
:10D4D0005821002000B585B001900091144B1A68C6
:10D4E000019BDB0013440DF10B0211461846FFF7B8
:10D4F00085FF0390039B002B01D1042313E0039BC2
:10D5000002221A70039B009A5A60094B1A68019B09
:10D51000DB0013449DF80B2011461846FFF762FF0D
:10D52000FFF744FC0023184605B05DF804FB00BF7C
:10D530005821002008B50E4B0022C3F840210C4BA7
:10D540000022C3F844210A4B0022C3F84821084BAB
:10D550000022C3F84C21064B0022C3F80021044BE3
:10D560000022C3F80421FFF74DFC00BF08BD00BF37
:10D570000010014008B5FFF7F3FE00BF08BD000032
:10D5800000B587B00390019200930B468DF80B30E5
:10D590000198FFF7FFF9034683F00103DBB2002B8C
:10D5A00001D0072357E0019B002B04D12C4B002214
:10D5B0001A6007234FE0FFF789FA2A4A009B13609D
:10D5C000294B03221A70264A019B1360019B1833D2
:10D5D0000193002305931FE0214B1A68059BDB0094
:10D5E00013440493049B00221A70049B00225A7077
:10D5F000049B9DF80B209A70049B019A5A609DF839
:10D600000B2013465B001344DB001A46019B1344B6
:10D610000193059B01330593059B022BDCDD134B26
:10D6200000221A60124B00221A70124B00221A704C
:10D630001420FFF74BF906211420FFF75FF914209F
:10D64000FFF7FEF80398FFF7CFF9FFF7E5FA024678
:10D65000094B1A600023184607B05DF804FB00BFB1
:10D660005821002070210020542100205C2100203E
:10D670006C2100206D2100206021002086B00390E5
:10D680000B4601928DF80B30134B1B68002B01D118
:10D6900008231EE0019B002B01D1072319E0039B07
:10D6A000002B01D1072314E0039B1B681B7C002B7C
:10D6B00001D008230DE0039B1B680593059B002206
:10D6C0001A74059B9DF80B205A74059B019A5A61A8
:10D6D0000023184606B070475821002000B583B0DB
:10D6E000FFF765F90346022B02D0062B03D005E0B5
:10D6F0000023019305E00123019302E0022301933B
:10D7000000BF019B184603B05DF804FB00B589B06B
:10D71000059004910392059B0793164B1B68002B01
:10D7200001D1082321E0059B002B01D108231CE037
:10D73000049B042B01D8072317E0079B5B69002B90
:10D7400001D1082311E0079B5B7C012B01D1049BD5
:10D7500000E000230693FFF7C1FF039B0093069BA5
:10D76000049A0799FFF776FE0346184609B05DF85C
:10D7700004FB00BF5821002000B585B00190019B3B
:10D7800003930F4B1B68002B01D1082313E0019B6F
:10D79000002B03D0039B5B69002B01D108230AE017
:10D7A000039B00221A74FFF799FF0346039918465A
:10D7B000FFF790FE0346184605B05DF804FB00BF76
:10D7C00058210020F0B482B00190019B186880F3CA
:10D7D00008885868FF2464B2EFF30585002D01D155
:10D7E000A64600472546064621273FBAF0B4002446
:10D7F000002500260027F0B4F92040B2004700BF02
:10D8000000BF02B0F0BC704700B583B00190019832
:10D81000FFF7D8FF00BF03B05DF804FBAADF704735
:10D8200000BF184682B003468DF807309DF80730D8
:10D8300003F01F0206499DF907305B09012000FA39
:10D8400002F2203341F8232000BF02B0704700BF2E
:10D8500000E100E082B003468DF807309DF8073004
:10D8600003F01F0206499DF907305B09012000FA09
:10D8700002F2603341F8232000BF02B0704700BFBE
:10D8800000E100E044DF704700BF184611DF704739
:10D8900000BF184613DF704700BF184600DF70470F
:10D8A00000BF184600BF704700B583B00E4B1B6821
:10D8B00000930023019310E00122019B02FA03F37D
:10D8C0001A46009B1340002B04D0019B5BB2184604
:10D8D000FFF7A8FF019B01330193019B1F2BEBD99D
:10D8E00000BF03B05DF804FB00E100E030B593B089
:10D8F0000346ADF8063000230593BDF806304149D4
:10D90000184609F06FFC1190119B002B76D106ABE5
:10D9100019463C4808F0C8FE1190119B002B54D1C9
:10D92000119B0E930E9B002B02D00E98FEF754FF16
:10D930000A9B354A10331868106099889B7991804A
:10D9400093710A9A304B0733146850689168D26813
:10D950001C6058609960DA60069A2B4B03F118043A
:10D96000154628686968AA68EB680FC42B7C237089
:10D97000069A254B2A331232106851681860596094
:10D9800012891A812048FFF789FF1190119B0D938E
:10D990000D9B002B02D00D98FEF71EFF012305936F
:10D9A0000423039305AB04930023029302AB1946AF
:10D9B000144808F0E9FB1190119B0C930C9B002B71
:10D9C0001CD00C98FEF708FF18E00F490D4808F02E
:10D9D000E1FD1190119B1093109B002B02D0109829
:10D9E000FEF7FAFE0848FFF759FF1190119B0F93BD
:10D9F0000F9B002B02D00F98FEF7EEFE00BF13B076
:10DA000030BD00BFB42100207821002000B589B0CE
:10DA10000346ADF806300823ADF80E300DF10E02C6
:10DA2000BDF8060001232049FFF7F8FE07901F4BC1
:10DA30001B689847B120FFF725FF0790079B0693C7
:10DA4000069B002B02D00698FEF7C6FEFFF71EFFCE
:10DA50000790079B0593059B002B02D00598FEF7C6
:10DA6000BBFE4FF010235B691846FFF713FF0790CA
:10DA7000079B0493049B002B02D00498FEF7ACFE96
:10DA8000BDF806301846FFF731FF1620FFF7E2FE1B
:10DA9000FFF70AFF4FF010235B691846FFF7B4FE4B
:10DAA00000BF09B05DF804FBAC210020E02000209D
:10DAB00000B585B001900091009B1B78002B05D12B
:10DAC000019B1B881846FFF7A1FF0EE003220121EE
:10DAD000019806F08BFD0390039B0293029B002BA1
:10DAE00002D00298FEF778FE00BF00BF05B05DF8D7
:10DAF00004FB000082B00190024A019B136000BF4A
:10DB000002B07047E020002000B585B003468DF8D4
:10DB100007300DF107030849184608F0EBFC0390A5
:10DB2000039B0293029B002B02D00298FEF754FE47
:10DB300000BF05B05DF804FBB421002082B0019065
:10DB4000019B002B01D1032304E0044B5A6D019B80
:10DB50001A600023184602B0704700BFB8210020A9
:10DB600082B001900091009B1B7B002B07D0009B93
:10DB70005A68019B1A60019B00221A7106E0009B03
:10DB80001A68019B1A60019B01221A7100BF02B042
:10DB9000704700B583B001900091019B1B79002B69
:10DBA00004D00099019800F00BF803E00099019867
:10DBB00000F024F8019B1B68184603B05DF804FBD5
:10DBC00082B001900091009B5A68019B1B68D21A99
:10DBD000009B9B689A4207D9019B1A68009B9B682F
:10DBE0001A44019B1A6006E0009B5A68019B1A6068
:10DBF000019B00221A7100BF02B0704782B00190F1
:10DC00000091019B1A68009B1B68D21A009B9B68BD
:10DC10009A4207D9019B1A68009B9B68D21A019B04
:10DC20001A6006E0009B1A68019B1A60019B0122A2
:10DC30001A7100BF02B0704784B0019043E0019BAD
:10DC4000013B019340F2E7330393039B18460138ED
:10DC500000BF00BF00BF00BF00BF00BF00BF00BFCC
:10DC600000BF00BF00BF00BF00BF00BF00BF00BFBC
:10DC700000BF00BF00BF00BF00BF00BF00BF00BFAC
:10DC800000BF00BF00BF00BF00BF00BF00BF00BF9C
:10DC900000BF00BF00BF00BF00BF00BF00BF00BF8C
:10DCA00000BF00BF00BF00BF00BF00BF00BF00BF7C
:10DCB00000BF00BF00BF00BF00BF00BF00BF00BF6C
:10DCC00000BF00BFC3D1019B002BB8D100BF04B07F
:10DCD0007047000082B003468DF807309DF807308A
:10DCE00003F01F0205499DF907305B09012000FA86
:10DCF00002F241F8232000BF02B0704700E100E0CB
:10DD000082B003468DF807309DF8073003F01F02FC
:10DD100006499DF907305B09012000FA02F26033E1
:10DD200041F8232000BF02B0704700BF00E100E0CF
:10DD300082B0034600918DF807309DF90730002B23
:10DD40000CDA009BDAB20C499DF8073003F00F03A0
:10DD5000043B5201D2B20B441A7609E0009BDAB2BE
:10DD600006499DF907305201D2B20B4483F80023D3
:10DD700000BF02B0704700BF00ED00E000E100E02E
:10DD800000B583B003460A468DF8073013468DF878
:10DD900006309DF806209DF9073011461846FFF71A
:10DDA000C7FF9DF907301846FFF7AAFF9DF9073016
:10DDB0001846FFF78FFF00BF03B05DF804FB00B506
:10DDC00083B00346ADF80630BDF80630184600F0C3
:10DDD00026F803461B68012B0CBF01230023DBB28E
:10DDE000184603B05DF804FB00B585B00346ADF8F6
:10DDF0000630BDF80630184600F011F803461A4602
:10DE000000231360BDF80630184600F008F80346FA
:10DE10001B680393039B00BF05B05DF804FB82B051
:10DE20000346ADF80630BDF8063003F1804303F534
:10DE3000C043184602B0704782B00190034A019B6C
:10DE4000C2F8043300BF02B0704700BF006000405A
:10DE500082B00190034BD3F80423019B1340184672
:10DE600002B070470060004082B00190084A019BF8
:10DE700003F5A27352F82330054943F00102019BD8
:10DE800003F5A27341F8232000BF02B0704700BF22
:10DE90000060004084B00390029113468DF8073073
:10DEA000144A039B03F5A27352F82330114923F45B
:10DEB000473323F44073039A02F5A27241F82230EB
:10DEC0000C4A039B03F5A27352F82320029B1B020A
:10DED00003F4F8519DF807301B0403F440330B435F
:10DEE00004491A43039B03F5A27341F8232000BFA2
:10DEF00004B070470060004082B00190054A019B69
:10DF000003F5A27352F823301B0A03F01F031846CF
:10DF100002B070470060004082B00190064A019B49
:10DF200003F5A27352F823301B0C03F00303DBB29A
:10DF3000184602B0704700BF0060004082B00190F8
:10DF4000084611461A4603468DF803300B468DF8F5
:10DF5000023013468DF801309DF803209DF8023001
:10DF60005B001A439DF801309B001A439DF808306E
:10DF70001B021A439DF80C301B044FF0A0411A43BA
:10DF8000019B03F5E07341F8232000BF02B0704706
:10DF900000B585B003900B468DF80B309DF80B2033
:10DFA00000230193002300931346002200210398CD
:10DFB000FFF7C4FF00BF05B05DF804FB84B001901B
:10DFC0004FF0A042019B03F5E07352F8233023F099
:10DFD000020303934FF0A041019B03F5E073039A02
:10DFE00041F8232000BF04B0704782B001900B4677
:10DFF0008DF803304FF0A042019B03F5E07352F817
:10E0000023304FF0A04123F44032019B03F5E0732D
:10E0100041F823204FF0A042019B03F5E07352F832
:10E0200023309DF8032012044FF0A0411A43019BB6
:10E0300003F5E07341F8232000BF02B0704782B0BF
:10E0400001904FF0A043D3F81025019B22FA03F36F
:10E0500003F00103184602B070474FF0A043D3F815
:10E0600010351846704782B001904FF0A042019BD6
:10E0700003F5E07352F823301B0C03F00303DBB20B
:10E08000184602B07047000082B001900C4A019B14
:10E090001344303393F90030002B09DB084A019B0D
:10E0A0001344303393F90030072B01DC012300E0E7
:10E0B000002303F00103DBB2184602B0704700BF33
:10E0C0001022002082B00190064A019B1344303395
:10E0D00093F90030072BCCBF01230023DBB2184695
:10E0E00002B070471022002082B00190064A019BC6
:10E0F0001344303393F90030DB43DBB2DB09DBB28E
:10E10000184602B0704700BF1022002084B0039070
:10E11000029101928DF80330029B59B20E4A039B83
:10E12000134430330A461A700B49029B019A41F896
:10E1300023209DF8033083F00103DBB2002B08D0CD
:10E14000029B083B039A51B2034A13440A4683F8E0
:10E15000502000BF04B070471022002082B0019010
:10E16000044A019B13443033FF221A7000BF02B0EF
:10E17000704700BF1022002082B00190044A019B2A
:10E180001344303393F90030184602B0704700BF93
:10E190001022002082B00190034A019B52F82330E4
:10E1A000184602B0704700BF1022002000B589B0A9
:10E1B0000390029113468DF80730FF238DF81F302E
:10E1C0009DF80730002B01D0002300E008230593C1
:10E1D0009DF80730002B01D0082300E00C230493A6
:10E1E000059B069314E00F4A069B52F82330B3F1C7
:10E1F000FF3F0AD19DF80730029A06990398FFF76E
:10E2000085FF069B8DF81F3006E0069B01330693C1
:10E21000069A049B9A42E6D39DF91F30184609B02E
:10E220005DF804FB1022002082B003468DF8073011
:10E230009DF80730094A4FF0FF3142F823109DF84E
:10E240000730072B07D99DF80730083B034A1344D2
:10E25000FF2283F8502000BF02B070471022002038
:10E2600000B583B01D4B93F85430002B01D0082328
:10E2700030E000238DF8073009E09DF8073018469C
:10E28000FFF76CFF9DF8073001338DF807309DF8DC
:10E2900007301F2BF1D900238DF8073009E09DF8D6
:10E2A00007301846FFF7C0FF9DF8073001338DF89F
:10E2B00007309DF807300B2BF1D906210620FFF718
:10E2C0005FFD4FF00040FFF7B7FD044B012283F8DC
:10E2D00054200023184603B05DF804FB10220020F0
:10E2E000044B93F85430002B14BF01230023DBB2FE
:10E2F000184670471022002000B587B003900291A5
:10E300000192002305930398FFF7EEFE0346002BCE
:10E3100002D00823059341E0029BDB781A4601995D
:10E320000398FFF743FF03468DF813309DF9133030
:10E33000B3F1FF3F30D0029B9B78002B03D00398B2
:10E34000FFF73CFE05E0029B5B7819460398FFF758
:10E350001FFE029BDB78002B08D09DF91300029B67
:10E360001B781A460399FFF795FD17E09DF91330C6
:10E37000083B0D4A134493F95010029B1B789B01F4
:10E380005AB29DF91330083B0A4351B2064A13446E
:10E390000A4683F8502001E004230593059B1846A4
:10E3A00007B05DF804FB00BF1022002000B589B063
:10E3B00001900B468DF803300198FFF783FE03466A
:10E3C000002B33D00198FFF7D7FE0346083B324AB3
:10E3D000134493F950308DF80F309DF80F309B099E
:10E3E0008DF80E309DF80E30032B0FD1FFF735FE60
:10E3F00001460122019B02FA03F30B40002B01D0DE
:10E40000032300E002238DF81F3008E09DF80E3052
:10E41000012B01D1022300E003238DF81F309DF86A
:10E420001F3019460198FFF7E0FD30E00198FFF733
:10E430002BFE0346002B2AD00198FFF79DFE0346D2
:10E440000693069B9BB240339BB29B00ADF81630FF
:10E45000069B1846FFF708FDBDF816301846FFF773
:10E46000C3FC9DF80330002B11D00198FFF784FE08
:10E4700003461846FFF78EFE0490049B002B06D03F
:10E480000122069B02FA03F31846FFF7D5FC00BFF2
:10E4900009B05DF804FB00BF1022002000B583B076
:10E4A00001900198FFF7CBFD0346002B14BF012319
:10E4B0000023DBB2184603B05DF804FB00B593B04F
:10E4C00000231193002310934FF48073ADF83A307A
:10E4D00001230D9300230F9321E0BDF83A30184635
:10E4E000FFF76DFC0346002B0ED00D98FFF7B0FC34
:10E4F0000346002B08D0BDF83A301846FFF774FCED
:10E50000119A0D9B134311930D9B5B000D93BDF866
:10E510003A300433ADF83A300F9B01330F930F9B21
:10E52000072BDAD94FF4BE70FFF749FC0346002BE6
:10E530000AD04FF4BE70FFF757FC119B43F0004325
:10E540001193FFF78AFD1090119BDBB2002B26D0B0
:10E5500001230D9300230F931EE00D9A119B13408E
:10E56000002B13D00F98FFF7C7FC09900F98FFF707
:10E57000D3FC03468DF823300F98FFF70BFE07906E
:10E580009DF82320079B1146099898470D9B5B0037
:10E590000D930F9B01330F930F9B072BDDD9119B1D
:10E5A000002B80F2A48000238DF8333000230B93DE
:10E5B0004FF0FF330A9300238DF8333000230F937D
:10E5C0007AE04D4A0F9B1344503393F900308DF895
:10E5D00017309DF8173023F0C0030493464A0F9B71
:10E5E0001344503393F90030B3F1FF3F61D00A9ADE
:10E5F000049B22FA03F303F00103002B59D09DF88A
:10E6000017309B098DF80F300498FFF7B5FD0346CE
:10E610001846FFF7BFFD0290029B002B03D19DF827
:10E620000F30032B45D10122049B02FA03F30D9313
:10E630009DF80F30032B03D10B9A0D9B13430B93C3
:10E640000498FFF710FD03468DF807300D9A109BD4
:10E650001340002B03D09DF80730022B08D00D9AF1
:10E66000109B1340002B24D19DF80730032B20D1A1
:10E670009DF80F30032B13D19DF80730022B01D1E9
:10E68000032300E002238DF806309DF8063019467A
:10E690000498FFF7AAFC9DF8333001338DF833302E
:10E6A000029B002B05D09DF80F20029B1146049879
:10E6B00098470F9B01330F930F9B032B81D99DF834
:10E6C0003330002B0ED0FFF7C8FC0690069A109B43
:10E6D0009A4203D100238DF8333003E0069B109358
:10E6E0000B9B0A939DF83330002B7FF464AF00BF7F
:10E6F00013B05DF804FB00BF1022002082B001902F
:10E700000B46ADF80230BDF80230019A13440022E6
:10E710001A6000BF02B0704782B001900B46ADF89E
:10E720000230BDF80230019A13441B68002B14BF5D
:10E7300001230023DBB2184602B0704782B001907B
:10E740000091019BD3F80423009B1340002B14BFBE
:10E7500001230023DBB2184602B0704782B001905B
:10E760000091019B009AC3F8082300BF02B07047D4
:10E7700084B00190019BD3F880340393019B039AEA
:10E78000C3F88024039B184604B0704782B0019000
:10E79000019BD3F81835DBB2184602B0704782B03F
:10E7A00001900B468DF803309DF80320019BC3F8C0
:10E7B0001C2500BF02B0704782B001900B468DF857
:10E7C00003309DF80330019A134401221A6000BF00
:10E7D00002B0704782B001900B46ADF80230BDF830
:10E7E0000230019A134400221A6000BF02B0704741
:10E7F00082B001900B46ADF80230BDF80230019AAC
:10E8000013441B68002B14BF01230023DBB21846FE
:10E8100002B0704782B001900091019BD3F80022B2
:10E82000009BDB431A40019BC3F8002200BF02B0EB
:10E83000704784B00190019BD3F880340393019B0F
:10E84000039AC3F88024039B184604B0704782B033
:10E850000190019BD3F84C35184602B0704782B046
:10E860000190019BD3F83C35184602B07047000078
:10E8700000B583B04FF48E710E48FFF73FFF0E4B8B
:10E880009B680D4A928A92B213441B788DF8073028
:10E89000094B9B8A9BB201339AB2074B9A829DF82F
:10E8A000073019460348FFF77AFF00BF03B05DF851
:10E8B00004FB00BF002000406822002010B5124B6E
:10E8C000DB7D002B08D14FF484711048FFF716FF51
:10E8D0000E48FFF75BFF16E04FF484710B48FFF71B
:10E8E0000DFF094BDB68084A527ED2B29C180748DC
:10E8F000FFF74CFF03462370034B5B7EDBB2013313
:10E90000DAB2014B5A7610BD682200200020004088
:10E9100000B587B0034600918DF8073001238DF8CC
:10E9200008309DF807308DF81030009B0393054B9D
:10E930005B68044A116802AA1046984700BF07B0F6
:10E940005DF804FB6822002000B587B003468DF80F
:10E95000073000238DF808309DF807308DF810300F
:10E96000084B9B680393074B00229A75054B5B6825
:10E97000044A116802AA1046984700BF07B05DF824
:10E9800004FB00BF6822002000B587B04FF400717F
:10E990006E48FFF7D3FE0346002B39D04FF4927137
:10E9A0006A48FFF7B9FE0346002B31D04FF492714D
:10E9B0006648FFF7A3FE4FF401716448FFF7CEFEEF
:10E9C000634B9B7E83F00103DBB2002B03D0042159
:10E9D0005E48FFF7F1FE02238DF800305B48FFF739
:10E9E000C7FE034603935A4BDB7D8DF80830584B26
:10E9F000DB680193564B0022DA75554B00221A76DC
:10EA0000534B5B68524A11686A461046984753E078
:10EA100004214E48FFF792FE0346002B4CD04FF4E2
:10EA200084714A48FFF778FE0346002B44D0FFF775
:10EA300045FF474BDA7D464B5B7EDBB29A423BD1CA
:10EA4000434B1B7E002B1BD0414BDB680593404B97
:10EA50005B7E8DF813303E4B1A7E3D4BDA753C4B96
:10EA60001B693B4AD3603A4B00221A76384B00228E
:10EA70005A769DF8133005991846FFF749FF1BE0B9
:10EA8000334B9B7E83F00103DBB2002B03D00421C8
:10EA90002E48FFF791FE4FF401712C48FFF75EFE00
:10EAA0002B4B0022DA752A4B5B7EDAB2284BDB68EF
:10EAB00019461046FFF72CFF4FF48E712348FFF7DD
:10EAC0002BFE0346002B18D0214B9B8A9AB2204B79
:10EAD0009B7D9BB29A4202D2FFF7CAFE0DE04FF433
:10EAE0008E711A48FFF70AFE194B9B7D002B04D04C
:10EAF000174B9B7D1846FFF727FF4FF4A271134871
:10EB0000FFF70AFE0346002B1CD04FF4A2710F48FA
:10EB1000FFF7F4FD0E4B9B7E002B03D000210B482A
:10EB2000FFF74AFE0A4BDB7D002B0BD0084B00227F
:10EB3000DA75074B5B7EDAB2054BDB681946104687
:10EB4000FFF7E6FE00BF07B05DF804FB00200040C1
:10EB50006822002000B587B04FF492715348FFF748
:10EB600047FE0346002B24D04FF492714F48FFF725
:10EB700031FE02238DF800304C48FFF75AFE034661
:10EB800003934A48FFF76BFE0346DBB28DF808306B
:10EB9000474BDB680193464B0022DA75444B002259
:10EBA0001A76434B5B68424A11686A46104698479A
:10EBB00040E04FF488713D48FFF71AFE0346002BF2
:10EBC00038D04FF488713948FFF704FE3748FFF713
:10EBD00046FE03468DF81730354BDB7D9DF8172038
:10EBE0009A4227D1324B1B7E002B18D0304BDB686A
:10EBF000049320212D48FFF70DFE2D4B1A7E2C4B40
:10EC0000DA752B4B1B692A4AD360294B00221A76EE
:10EC10009DF8173004991846FFF77AFE0AE0244B56
:10EC20000022DA75224BDA689DF817301146184633
:10EC3000FFF76EFE4FF4A2711C48FFF7D9FD0346A3
:10EC4000002B16D04FF4A2711848FFF7C3FD184BE4
:10EC5000DB7D002B0DD0164B0022DA751348FFF731
:10EC6000FEFD0346DAB2124BDB6819461046FFF789
:10EC70004FFE4FF490710D48FFF7BAFD0346002B8D
:10EC800010D04FF490710948FFF7A4FD084B9B7D0D
:10EC9000002B07D00548FFF7DAFD0346DBB2184624
:10ECA000FFF752FE00BF07B05DF804FB00200040F4
:10ECB0006822002008B5054B1B7F002B02D0FFF710
:10ECC00049FF01E0FFF760FE00BF08BD6822002099
:10ECD0004FF080531B699BB21846704700B583B054
:10ECE0004FF010235B690193019BB3F1FF3F07D005
:10ECF000FFF7EEFF03461A46019BB3FBF2F302E077
:10ED00004FF080535B69184603B05DF804FB82B096
:10ED10000190019B03F00303002B0CBF0123002390
:10ED2000DBB2184602B0704729DF704700BF1846B3
:10ED300028DF704700BF184608B50D4B1B781846F2
:10ED400000F04AFA0A4B5B78013BDAB2084B5A7082
:10ED5000074B1B780133DAB2054B1A70044B1B7852
:10ED60001E2B02D1024B00221A7000BF08BD00BF4B
:10ED70008822002008B50A4B1B781A4613469B00D0
:10ED800013449B00064A134404331946002000F044
:10ED9000FDFAFFF7D1FF002000F048F900BF08BDE1
:10EDA0008822002008B5054B00221A60044B00227F
:10EDB0001A6000F0DFFA00BF08BD00BFFC2400208D
:10EDC0001825002000B583B001900A4B1B781A4625
:10EDD00013469B0013449B00064A13440433194610
:10EDE000019800F0D3FA042000F020F900BF03B02E
:10EDF0005DF804FB8822002000B583B00190019BE0
:10EE0000002B0CD0112B06D1074B1B6843F00803D5
:10EE1000054A136004E00198FFF7D4FF00E000BF4B
:10EE200000BF03B05DF804FB2025002000B585B0CD
:10EE3000039002910192019A02990398FFF774FFDF
:10EE400003461846FFF7D8FF00BF05B05DF804FB86
:10EE500030B583B0264B1B781A4613469B001344EB
:10EE60009B00234A134404330193019B5C88FFF702
:10EE70002FFF03469C4224D9019B5B881C46FFF769
:10EE800027FF0346E31A0093019BDB68019A9288EF
:10EE90001A44009B13441D46019B1A69009BD41819
:10EEA000FFF716FF03469B089BB21A4621462846E9
:10EEB000FFF7BCFFFFF70CFF03461A460D4B1A6025
:10EEC00013E0019BDB68019A928813441846019B6A
:10EED0001969019B5B889B089BB21A46FFF7A6FF46
:10EEE000019B5B881A46034B1A6000BF03B030BD1C
:10EEF000882200201825002008B5FFF7A9FF00BFD1
:10EF000008BD000010B584B0274B1B6823F0010337
:10EF1000254A1360254B1B781A4613469B00134461
:10EF20009B00224A134404330393039BDB68029340
:10EF3000FFF7CEFE03461A46029BB3FBF2F30193A2
:10EF40001B4A019B1360039B5B881A46029B134478
:10EF50005C1EFFF7BDFE0346B4FBF3F30093019A7A
:10EF6000009B9A4206D1104B1B6843F002030E4AE5
:10EF7000136005E00C4B1B6823F002030A4A136080
:10EF80000C4B1B68002B09D1074B1B6803F00203D5
:10EF9000002B03D1022000F00DF902E0002000F068
:10EFA00009F900BF04B010BD2025002088220020F0
:10EFB000F8240020F024002000B583B001900198CF
:10EFC000FFF7B6FE03461846FFF716FF00BF03B073
:10EFD0005DF804FB08B5034B1B681846FFF7ECFF10
:10EFE00000BF08BDF824002008B50F4B1B78032B89
:10EFF00016D801A252F823F009F001000FF0010029
:10F0000015F001001BF00100FFF7CCFE09E0FFF74F
:10F0100073FF06E0FFF776FF03E0FFF7DBFF00E09A
:10F0200000BF00BF08BD00BFEC24002000B583B0C6
:10F0300003468DF80730054A9DF807301370FFF737
:10F04000D3FF00BF03B05DF804FB00BFEC24002039
:10F0500010B5FFF743FE03465C1EFFF739FE03467B
:10F0600003FB04F4FFF734FE0346B4FBF3F3184646
:10F07000FFF7A2FF00BF10BD38B5FFF72FFE034614
:10F080005C1EFFF725FE034603FB04F31C46FFF757
:10F090001FFE03461A46084B1B6803FB02F31D467E
:10F0A000FFF716FE03469B089BB21A4629462046E8
:10F0B000FFF7BCFE00BF38BDF824002008B5034BA5
:10F0C0001B681846FFF778FF00BF08BDF824002032
:10F0D00030B585B01E4B1B781A4613469B0013446F
:10F0E0009B001B4A134404330393039BDB68029386
:10F0F000039B5B881A46029B1344039A92889C18D0
:10F10000FFF7E6FD0346B4FBF3F203FB02F3E31A59
:10F110000193039B5B881A46029B1344039A9288CF
:10F1200013441D46FFF7DAFD03465C1EFFF7D0FDD2
:10F13000034603FB04F2019B13441946054B1B686D
:10F140001A462846FFF772FE00BF05B030BD00BF6B
:10F1500088220020F424002038B50D4B1B685C1E6B
:10F16000FFF7B6FD034603FB04F31D46FFF7B6FDAC
:10F1700003465C1EFFF7ACFD034603FB04F3194690
:10F18000044B1B681A462846FFF750FE00BF38BDE7
:10F19000F8240020F024002008B5044B1B781A4600
:10F1A000034B53F82230984700BF08BDED240020E0
:10F1B000307C020000B583B003468DF80730054A65
:10F1C0009DF807301370FFF7E7FF00BF03B05DF84D
:10F1D00004FB00BFED24002082B001901F49019A7A
:10F1E00013469B0013449B000B44043300221A7007
:10F1F0001A49019A13469B0013449B000B440633A3
:10F2000000221A801549019A13469B0013449B0063
:10F210000B440C3302221A601049019A13469B00DA
:10F2200013449B000B44103300221A600B49019ACF
:10F2300013469B0013449B000B44143300221A60B6
:10F240000649019A13469B0013449B000B44083364
:10F2500000221A8000BF02B0704700BF8822002041
:10F2600000B583B00A4B00221A70094B00225A7075
:10F270000023019305E00198FFF7AEFF019B0133E6
:10F280000193019B1D2BF6D900BF03B05DF804FB71
:10F290008822002000B587B0029101921A460346E9
:10F2A0008DF80F301346ADF80C30304B5B781E2BC9
:10F2B00054D02E4B1B781A462C4B5B781344049386
:10F2C000049B1D2B02D9049B1E3B04932749049ADF
:10F2D00013469B0013449B000B4404339DF80F20FE
:10F2E0001A702249049A13469B0013449B000B4456
:10F2F0001433019A1A601D49049A13469B00134463
:10F300009B000B440833029A043392E8030083E81D
:10F3100003001649049A13469B0013449B000B44B8
:10F320000633BDF80C201A801049049A13469B003E
:10F3300013449B000B440833BDF820201A800B4B6C
:10F340005B780133DAB2094B5A70094B1B78002BFA
:10F3500001D100F0A5FB0023059301E004230593F0
:10F36000059B184607B05DF804FB00BF882200200B
:10F37000EC24002008B5044B5B78002B01D000F092
:10F380008FFB00BF08BD00BF8822002010B586B0EB
:10F3900003900291029B1B788DF81730029B9A68AC
:10F3A0000C4913465B0013449B000B441B680493F9
:10F3B000029B03F10800029B1A69074B1B689DF82A
:10F3C00017100093049C1346039AA04700BF06B091
:10F3D00010BD00BF002500201C25002010B584B002
:10F3E000184B1B781A4613469B0013449B00154A82
:10F3F000134404330293029BDB680193029B5B88F6
:10F400001A46019B1344029A928813445C1EFFF72C
:10F410005FFC0346B4FBF3F300930B4B1B68002B1C
:10F4200008D00A4B1B68009A9A4203D101238DF839
:10F430000F3002E000238DF80F309DF80F30184692
:10F4400004B010BD88220020F4240020F8240020FD
:10F4500000B583B00B4B1B781A4613469B00134430
:10F460009B00084A134404330193019B1B78042B2F
:10F4700002D0FFF77FFC01E000F006FB00BF03B005
:10F480005DF804FB8822002008B5FFF7E1FF00BF0C
:10F4900008BD000010B584B01B4B1B781A461346FC
:10F4A0009B0013449B00184A134404330293029BAD
:10F4B000DB680193029B5B881A46019B1344029A06
:10F4C000928813445C1EFFF703FC0346B4FBF3F37E
:10F4D00000930E4B1B68009A9A4208D80B4B1B688E
:10F4E000009A9A4207D10A4B1B68002B03D10123D3
:10F4F0008DF80F3002E000238DF80F309DF80F30AB
:10F50000184604B010BD00BF88220020F824002057
:10F51000F424002008B5064B1B6823F00803044AB6
:10F520001360044B1B781846FFF744FE00BF08BD6C
:10F5300020250020ED24002008B5194B1B6803F09E
:10F540000803002B28D1FFF749FF0346002B0CD0FE
:10F55000144B00221A60124B1B6843F00103104A3F
:10F5600013600020FFF726FE18E0FFF793FF034625
:10F57000002B06D00B4B00221A600220FFF71AFE68
:10F580000CE0094B1B68002B03D00320FFF712FE91
:10F5900004E0FFF779FF01E0FFF7BCFF00BF08BD03
:10F5A00020250020F0240020F424002008B5064B7C
:10F5B0001B6803F00803002B02D1FFF765FF01E091
:10F5C000FFF7A8FF00BF08BD2025002008B51D4B90
:10F5D0001B6803F00803002B30D11B4B1B68013361
:10F5E000194A1360194B1B68002B03D00420FFF746
:10F5F000E1FD25E0FFF74EFF0346002B03D002207C
:10F60000FFF7D8FD1CE0124B1B68002B13D00D4BED
:10F610001B6803F00103002B09D10A4B1B6843F060
:10F620000103084A13600020FFF7C4FD08E003202F
:10F63000FFF7C0FD04E0FFF727FF01E0FFF76AFFD7
:10F6400000BF08BD20250020F8240020F024002061
:10F65000F424002008B50D4B1B6803F00803002BB1
:10F660000FD10A4B1B6803F00203002B05D0074B98
:10F670001B6843F00103054A13600220FFF79AFD5F
:10F6800001E0FFF747FF00BF08BD00BF20250020B5
:10F6900008B5074B1B6803F00803002B03D10120BA
:10F6A000FFF788FD01E0FFF735FF00BF08BD00BF91
:10F6B0002025002008B5044B1B781A46034B53F84D
:10F6C0002230984700BF08BDED240020447C020092
:10F6D00008B5064B1B6823F00803044A1360044B6B
:10F6E0001B781846FFF7A2FC00BF08BD20250020AC
:10F6F000EC24002008B5104B1B6803F00803002B16
:10F7000015D10E4B1B6801330C4A1360FFF7C2FE84
:10F71000034683F00103DBB2002B02D0FFF798FE13
:10F7200007E0074B1B781846FFF780FC01E0FFF766
:10F73000CFFF00BF08BD00BF20250020F824002017
:10F74000EC24002000B583B0144B1B6803F00803C1
:10F75000002B1DD1124B1B781A4613469B001344F5
:10F760009B000F4A134404330193019B5A880D4BAD
:10F770001B689BB2D31A9AB2019B5A80019B5B888B
:10F78000002B02D1FFF7F6FA04E0FFF761FB01E07E
:10F79000FFF79EFF00BF03B05DF804FB20250020AB
:10F7A000882200201825002008B50A4B1B78022B60
:10F7B0000AD0032B05D0012B00D008E0FFF7C2FFD1
:10F7C00005E0FFF797FF02E0FFF774FF00BF00BFFF
:10F7D00008BD00BFEC24002008B50F4B1B680133A7
:10F7E0000D4A13600C4B1B68B3F57A7F0FD00B4B9F
:10F7F0001B78022B05D0094B1B781846FFF716FC27
:10F8000008E0074B1B781846FFF7D4FC02E00D20F8
:10F81000FFF7D8FA00BF08BDFC240020EC2400202C
:10F82000ED24002000B583B00190114B1B78002B14
:10F8300018D00F4B1B78042B14D0019B022B02D045
:10F84000032B03D00FE0FFF7AFFF0CE0094B1B6861
:10F8500003F00803002B02D1FFF7BEFF03E0FFF720
:10F86000A3FF00E000BF00BF03B05DF804FB00BFD2
:10F87000EC2400202025002010B584B003460A4661
:10F88000ADF806301346ADF80430FFF721FA034611
:10F890001A46BDF80430B3FBF2F39BB20393FFF7B3
:10F8A00017FA03461A46BDF80630B3FBF2F39BB2D3
:10F8B0000293039A029B9A4208D1BDF80420BDF836
:10F8C0000630D31A9B080D4A136013E0FFF700FAC5
:10F8D00003461C46FFF7FCF903461A46BDF80630FE
:10F8E000B3FBF2F102FB01F29B1A9BB2E31A9B08F5
:10F8F000024A136000BF04B010BD00BFF424002012
:10F9000010B588B05B4B1B781A4613469B00134416
:10F910009B00584A134404330793079BDB68069304
:10F92000079B9A68544913465B0013449B000B44A1
:10F9300008331B88ADF81630079B9A684E4913466A
:10F940005B0013449B000B440A331B88ADF8143052
:10F95000079B9A68484913465B0013449B000B447D
:10F9600004331B680493FFF7B3F903461A46069B5A
:10F97000B3FBF2F102FB01F29B1A002B0CBF012337
:10F9800000238DF80F30BDF81630BDF8142002FBAF
:10F9900003F31A46049B13440293079B5B881A46A1
:10F9A000069B1344079A928813440193334B002219
:10F9B0001A609DF80F30002B06D0079B5C88FFF77C
:10F9C00087F903469C420FD09DF80F30002B07D0DB
:10F9D000019A029B9A4203D1079B9B88002B03D07C
:10F9E000079B9B68032B0CD1FFF772F903461A465D
:10F9F000069BB3FBF2F3224A13600320FFF716FBCA
:10FA000035E0079B9B881A46069BD418FFF760F9E0
:10FA10000346B4FBF3F203FB02F3E31A9B08194A13
:10FA20001360FFF755F903461A46019BB3FBF2F149
:10FA300002FB01F29B1A002B0CBF012300238DF85F
:10FA40000330019A029B9A420ED09DF8033083F056
:10FA50000103DBB2002B07D0019B9BB2029A92B24A
:10FA600011461846FFF708FF0220FFF7DFFA00BF34
:10FA700008B010BD8822002000250020F4240020BA
:10FA8000F8240020F024002008B50120FFF7CEFA6A
:10FA900000BF08BD08B5FFF733FF00BF08BD000079
:10FAA00000B583B0124B1B781A4613469B001344D3
:10FAB0009B000F4A134404330193019B5B881A4651
:10FAC0000C4B1A60019B1B78032B07D0042B08D02A
:10FAD000012B00D008E0FFF7D7FF05E0FFF710FF8C
:10FAE00002E0FFF7D7FF00BF00BF03B05DF804FBE3
:10FAF000882200201C25002010B582B0FFF7B0FB43
:10FB0000264B00221A80FFF7E9F80346DC1EFFF7B8
:10FB1000DFF8034603FB04F3214A1360214B002264
:10FB20001A60002301931FE01F49019A13465B00EE
:10FB300013449B000B4400221A601B49019A134690
:10FB40005B0013449B000B44083300221A801649C3
:10FB5000019A13465B0013449B000B440A330022B6
:10FB60001A80019B01330193019B012BDCD90F4BC0
:10FB700000221A700E4B00221A600E4B00221A60EF
:10FB80000D4B00221A600B4B1B6843F00403094A1B
:10FB900013600023184602B010BD00BFE42400200B
:10FBA000E8240020F824002000250020EC24002078
:10FBB000FC240020202500201825002030B585B029
:10FBC000019000915A4B1B6803F00403002B01D1F4
:10FBD0000823AAE0019B002B01D10E23A5E0009B86
:10FBE000002B01D10E23A0E0019B1B68002B01D14B
:10FBF0000E239AE0019B9C88FFF76AF803469C421B
:10FC000003D8019B9B880F2B01D807238DE0019B14
:10FC1000DB88002B15D0019BDB881A46019B9B8853
:10FC200003FB02F31A46434B1B68D418FFF756F840
:10FC300003465D1EFFF74CF8034603FB05F39C42A9
:10FC400001D9072371E0019B9B8803F003039BB25A
:10FC5000002B01D0072368E0374B1B88022B01D112
:10FC6000042362E0344B1B881A46009B1A60314B18
:10FC70001A68009B5A60304B1B881846009B5A68D4
:10FC80002E4903465B0003449B000B4404331A6077
:10FC9000294B1B881846019B1A68284903465B00BC
:10FCA00003449B000B441A60234B1B881946019B9D
:10FCB0009888224A0B465B000B449B001344083390
:10FCC00002461A801C4B1B881946019BD8881B4A88
:10FCD0000B465B000B449B0013440A3302461A8018
:10FCE000019B9B881A46019BDB8803FB02F4FEF70D
:10FCF000EFFF034623445C1EFEF7EAFF034694FB36
:10FD0000F3F30393FEF7E4FF03461A46039B03FB5A
:10FD100002F2084B1B681344064A1360064B1B880B
:10FD200001339AB2044B1A800023184605B030BD47
:10FD300020250020E8240020E424002000250020C5
:10FD400030B486B003900B460192ADF80A30354BC3
:10FD50001B6803F00403002B01D108235DE0039B23
:10FD6000002B01D10E2358E0019B002B01D10E2363
:10FD700053E0039B1B68012B0AD8039B1A682A498E
:10FD800013465B0013449B000B441B68002B01D1FE
:10FD9000072342E0039A04AB92E8030083E80300E0
:10FDA0000599BDF80A00039B1A681F4C13465B00B7
:10FDB00013449B00234408331B8803FB00F30B44CC
:10FDC00005930599049A184813465B0013449B0059
:10FDD000034404331868049A134C13465B0013441D
:10FDE0009B0023440A331B881D46049A0E4C13467D
:10FDF0005B0013449B00234408331B8803FB05F37B
:10FE00000344994201D3072307E0019B1A4604AB40
:10FE100093E8030082E803000023184606B030BCD4
:10FE2000704700BF202500200025002030B587B096
:10FE30000590049111461A460B46ADF80E30134654
:10FE4000ADF80C30504B1B6803F00403002B01D1BC
:10FE5000082396E0049B002B01D10E2391E0059B23
:10FE6000002B01D10E238CE0059B1B68012B0AD8C7
:10FE7000059B1A68454913465B0013449B000B44DD
:10FE80001B68002B01D107237BE0059B5968059B6C
:10FE90001A683E4813465B0013449B000344043336
:10FEA0001868059B1A68394C13465B0013449B0085
:10FEB00023440A331B881D46059B1A68334C13469E
:10FEC0005B0013449B00234408331B8803FB05F3AA
:10FED0000344994201D3072353E0BDF80E30002BB1
:10FEE0000DD0059B1A68294913465B0013449B00FB
:10FEF0000B4408331B88BDF80E209A4201D9072312
:10FF00003FE0BDF80E20BDF80C30D118059B1A68F3
:10FF10001E4813465B0013449B00034408331B88B0
:10FF2000994201DD07232CE00498FEF7F0FE03461A
:10FF300083F00103DBB2002B15D1BDF80C3018465D
:10FF4000FEF7E5FE034683F00103DBB2002B0AD186
:10FF5000059B5B681846FEF7DAFE034683F0010353
:10FF6000DBB2002B01D010230BE0BDF80E20BDF852
:10FF70000C3000931346049A05990120FFF78AF983
:10FF80000346184607B030BD20250020002500207C
:10FF900030B587B00590049111461A460B46ADF86E
:10FFA0000E301346ADF80C30504B1B6803F00403C1
:10FFB000002B01D1082396E0049B002B01D10E23D6
:10FFC00091E0059B002B01D10E238CE0059B1B6863
:10FFD000012B0AD8059B1A68454913465B00134458
:10FFE0009B000B441B68002B01D107237BE0059B82
:10FFF0005968059B1A683E4813465B0013449B00F2
:020000022000DC
:10000000034404331868059B1A68394C13465B0097
:1000100013449B0023440A331B881D46059B1A6822
:10002000334C13465B0013449B00234408331B8866
:1000300003FB05F30344994201D3072353E0BDF8C2
:100040000E30002B0DD0059B1A68294913465B0022
:1000500013449B000B4408331B88BDF80E209A42C2
:1000600001D907233FE0BDF80E20BDF80C30D118B0
:10007000059B1A681E4813465B0013449B0003440B
:1000800008331B88994201DD07232CE00498FEF712
:100090003EFE034683F00103DBB2002B15D1BDF811
:1000A0000C301846FEF733FE034683F00103DBB243
:1000B000002B0AD1059B5B681846FEF728FE034615
:1000C00083F00103DBB2002B01D010230BE0BDF85D
:1000D0000E20BDF80C3000931346049A05990420B5
:1000E000FFF7D8F80346184607B030BD202500209A
:1000F0000025002030B587B00590049111461A46BE
:100100000B46ADF80E301346ADF80C30594B1B685A
:1001100003F00403002B01D10823A8E0049B002B6B
:1001200001D10E23A3E0059B002B01D10E239EE0FD
:10013000049B1B68012B0AD8049B1A684E4913467E
:100140005B0013449B000B441B68002B01D1072369
:100150008DE0049B5968049B1A68474813465B006E
:1001600013449B00034404331868049B1A68424CF0
:1001700013465B0013449B0023440A331B881D462F
:10018000049B1A683C4C13465B0013449B002344B9
:1001900008331B8803FB05F30344994201D307236B
:1001A00065E0BDF80E30002B0DD0049B1A68324973
:1001B00013465B0013449B000B4408331B88BDF8B7
:1001C0000E209A4201D9072351E0BDF80E20BDF858
:1001D0000C30D118049B1A68274813465B0013445F
:1001E0009B00034408331B88994201DD07233EE04E
:1001F0000598FEF78CFD034683F00103DBB2002B6C
:1002000015D1BDF80C301846FEF781FD034683F08A
:100210000103DBB2002B0AD1049B5B681846FEF792
:1002200076FD034683F00103DBB2002B01D01023DF
:100230001DE0BDF80C20049B5B6813441946BDF813
:100240000E301A46059807F0B6FC049B1A680A4956
:1002500013465B0013449B000B441C68BDF80E3032
:100260000093059B002202210498A0470023184612
:1002700007B030BD202500200025002030B589B012
:1002800003900B46ADF80A30654B1B6803F004037E
:10029000002B01D10823C0E0039B002B01D10E23CA
:1002A000BBE0039B1B68012B0AD8039B1A685D49BE
:1002B00013465B0013449B000B441B68002B01D1C9
:1002C0000723AAE0039B5968039B1A685548134605
:1002D0005B0013449B00034404331868039B1A68B3
:1002E000504C13465B0013449B0023440A331B8885
:1002F0001D46039B1A684B4C13465B0013449B003E
:10030000234408331B8803FB05F30344994201D3BC
:10031000072382E0039B5B681846FEF7F8FC034660
:1003200083F00103DBB2002B01D0102375E0039BA7
:100330005968039B1A683B4813465B0013449B00B3
:10034000034404331B68CA1A039B196835480B46DB
:100350005B000B449B00034408331B88B2FBF3F1A2
:1003600003FB01F3D31A002B01D0072355E0039BB5
:100370001A682C4913465B0013449B000B44083356
:100380001A88BDF80A30B3FBF2F102FB01F29B1AA6
:100390009BB2002B03D1BDF80A30002B01D10723FB
:1003A0003BE0039B1A681F4913465B0013449B0004
:1003B0000B4408331B881846039B1A6819491346D7
:1003C0005B0013449B000B440A331B8803FB00F3C0
:1003D0000793039B5A68BDF80A3013440693039BA6
:1003E0001A68104913465B0013449B000B44043306
:1003F0001B68079A13440593069A059B9A4201D9F4
:1004000007230AE0BDF80A200023009313460022C8
:1004100003990320FEF73EFF0346184609B030BD9E
:10042000202500200025002082B001900A4B1B6887
:1004300003F00403002B01D108230AE0019B002BE9
:1004400001D10E2305E0054B5B781A46019B1A602B
:100450000023184602B07047202500208822002083
:1004600084B001900091019B032B17D84FF0A0435B
:10047000D3F81035DB4303930C4A019B52F8233029
:10048000012202FA03F31A46039B1340002B14BF08
:1004900001230023DAB2009B1A7002E0009B0022C5
:1004A0001A700023184604B0704700BF647C020035
:1004B00000B587B003460A468DF8073013468DF81D
:1004C000063000238DF817300023049302E0049BCC
:1004D00001330493049B032B07D8414A049B52F831
:1004E00023209DF807309A42F1D1049B032B65D855
:1004F0009DF80630012B04D0022B53D0002B34D0B2
:100500005CE03849049A13465B0013440B441B78A3
:100510008DF817303349049A13465B0013440B449B
:1005200001331B78002B12D02F48304B1A6813462A
:100530009B0013445B002E4A1946FDF7E7F8039031
:10054000039B002B03D12A4A9DF8073013702549DD
:10055000049A13465B0013440B4402331978254A6E
:10056000049B13440A461A7028E01F4B1846FDF7F7
:1005700003F9204A049B134419781A48049A134635
:100580005B001344034402331B78994215D115498B
:10059000049A13465B0013440B4402331B788DF816
:1005A00017300AE00F49049A13465B0013440B44CA
:1005B00001331B788DF8173000E000BF9DF817302D
:1005C000002B09D00C4B1B68002B05D00A4B1B6875
:1005D0009DF817201046984700BF07B05DF804FB50
:1005E000647C020078250020842500202825002036
:1005F000A4250020A82500207425002000B583B084
:100600000190019B1B7802211846FFF751FF00BFA4
:1006100003B05DF804FB000000B589B003468DF817
:10062000073000230793002306939DF80730172B0C
:1006300000F2398301A252F823F000BF9D060200A8
:10064000C3060200C30602006F0702001B08020077
:10065000AD08020057090200E5090200210A020064
:100660005B0A02009B0A0200D50A0200150B020079
:10067000350B0200350B0200350B0200350B020072
:10068000350B0200C50B0200E50B02001B0C02003B
:10069000510C0200870C0200870C0200CC4B1B6837
:1006A000DB434FF0A04203F4F013C2F808354FF0DB
:1006B000A0430022C3F80C25C64A9DF807301370EA
:1006C000F2E2C34B1B68DB434FF0A04203F4E0139C
:1006D000C2F808354FF0A0430022C3F80C254FF0B4
:1006E000A043D3F8043583F4F01303F40033002B54
:1006F00015D04FF0A0434FF40032C3F808254FF057
:10070000A0430022C3F80C259DF80730022B02D12C
:100710004FF4E16301E04FF47A63069313E04FF086
:10072000A0434FF40032C3F80C254FF0A043002241
:10073000C3F808259DF80730022B01D1C82301E03A
:100740004FF4C8730693A34A9DF807301370A2486C
:10075000069BA24AA2FB03235B09A14A126802FB83
:1007600003F300221946FCF7D1FF07909CE2984B57
:100770001B68DB434FF0A04203F4E013C2F80835D6
:100780004FF0A0430022C3F80C254FF0A043D3F84C
:10079000043583F4F01303F40033002B15D04FF02D
:1007A000A0434FF40032C3F808254FF0A0430022C5
:1007B000C3F80C259DF80730032B02D14FF4487382
:1007C00001E04FF47A63069313E04FF0A0434FF437
:1007D0000032C3F80C254FF0A0430022C3F80825CF
:1007E0009DF80730032B01D1C82301E04FF4C873F3
:1007F0000693784A9DF8073013707748069B774A2E
:10080000A2FB03235B09764A126802FB03F3002272
:100810001946FCF77BFF079046E26D4B1B68DB43F4
:100820004FF0A04203F4E013C2F808354FF0A043A4
:100830000022C3F80C254FF0A043D3F8043583F40D
:10084000F01303F40033002B0ED04FF0A0434FF40D
:100850000032C3F808254FF0A0430022C3F80C254E
:100860004FF47A6306930DE04FF0A0434FF400324B
:10087000C3F80C254FF0A0430022C3F808254FF41D
:10088000C8730693534A9DF8073013705248069B6D
:10089000524AA2FB03235B09514A126802FB03F38D
:1008A00000221946FCF732FF0790FDE1484B1B6818
:1008B000DB434FF0A04203F4E013C2F808354FF0D9
:1008C000A0430022C3F80C254FF0A043D3F8043511
:1008D00083F4F01303F40033002B14D04FF0A04343
:1008E0004FF40032C3F808254FF0A0430022C3F8AC
:1008F0000C259DF80730052B01D1C82301E04FF4EA
:100900007A63069313E04FF0A0434FF40032C3F82C
:100910000C254FF0A0430022C3F808259DF80730AE
:10092000052B01D1C82301E04FF4C8730693294A6F
:100930009DF8073013702848069B284AA2FB032322
:100940005B09274A126802FB03F300221946FCF7F1
:10095000DDFE0790A8E11E4B1B68DB434FF0A04271
:1009600003F4E013C2F808354FF0A0430022C3F8A7
:100970000C254FF0A043D3F8043583F4F01303F4AF
:100980000033002B0BD04FF0A0434FF40032C3F8DC
:1009900008254FF0A0430022C3F80C250AE04FF0D1
:1009A000A0434FF40032C3F80C254FF0A0430022BF
:1009B000C3F80825074A9DF8073013700648084B0E
:1009C0001B6800221946FCF7A1FE07906CE100BFEE
:1009D0003025002024250020342500201F85EB51E0
:1009E00028250020B34B1B68DB434FF0A04203F4E3
:1009F000E013C2F808354FF0A0430022C3F80C25DD
:100A00004FF0A0434FF40032C3F80C254FF0A04341
:100A10000022C3F80825A84A9DF80730137043E167
:100A20004FF0A043D3F804350293029BDB434FF011
:100A3000A04203F48023C2F808354FF0A042029B85
:100A400003F48023C2F80C359C489D4B1B680022A0
:100A50001946FCF75BFE079026E14FF0A043D3F860
:100A600004350393039BDB434FF0A04203F4802340
:100A7000C2F808354FF0A042039B03F48023C2F86C
:100A80000C358E488E4B1A6813469B001344002287
:100A90001946FCF73BFE079006E14FF0A043D3F860
:100AA00004350493049BDB434FF0A04203F48023FE
:100AB000C2F808354FF0A042049B03F48023C2F82B
:100AC0000C357E487E4B1B6800221946FCF71EFE43
:100AD0000790E9E04FF0A043D3F804350593059B58
:100AE000DB434FF0A04203F48023C2F808354FF0F7
:100AF000A042059B03F48023C2F80C356F48704B6D
:100B00001A6813469B00134400221946FCF7FEFDA9
:100B10000790C9E04FF0A0434FF4F012C3F80C2542
:100B20004FF0A0430022C3F80825634A9DF8073020
:100B30001370B9E0634B1846FCF71EFE07909DF852
:100B40000730C3F111030693069B002B29D0079BA6
:100B5000002B26D1574B4FF400221A60069B012B25
:100B600011D95848069BC82202FB03F3564AA2FB40
:100B700003235B09524A126802FB03F30022194661
:100B8000FCF7C4FD07904B4B1B684FF0A04203F4E9
:100B9000F013C2F80C354FF0A0430022C3F808252B
:100BA00082E0444B1B684FF0A04203F4F013C2F8FC
:100BB00008354FF0A0430022C3F80C253D4B00221E
:100BC0001A6071E04FF0A0434FF4F012C3F808250B
:100BD0004FF0A0430022C3F80C25374A9DF8073098
:100BE000137061E04FF0A0434FF4E012C3F8082502
:100BF0004FF0A0430022C3F80C254FF0A0434FF460
:100C00000032C3F80C254FF0A0430022C3F808259A
:100C1000294A9DF80730137046E04FF0A0434FF487
:100C2000D012C3F808254FF0A0430022C3F80C25CA
:100C30004FF0A0434FF48022C3F80C254FF0A0439F
:100C40000022C3F808251C4A9DF8073013702BE0DA
:100C50004FF0A0434FF4C012C3F808254FF0A04353
:100C60000022C3F80C254FF0A0434FF4C022C3F874
:100C70000C254FF0A0430022C3F808250E4A9DF82A
:100C80000730137010E04FF0A0434FF4F012C3F898
:100C90000C254FF0A0430022C3F80825064A9DF812
:100CA0000730137000E000BF079B184609B05DF8DD
:100CB00004FB00BF3025002024250020342500201F
:100CC00028250020542500201F85EB5100B583B056
:100CD0000190074B1B6803F00103002B04D0054B68
:100CE0001B781846FFF798FC00BF03B05DF804FBC3
:100CF0002C2500202425002084B001904FF0A04333
:100D0000D3F804350393039BDB434FF0A04203F475
:100D10000023C2F808354FF0A042039B03F40023E0
:100D2000C2F80C3500BF04B07047000000B585B0B4
:100D300003468DF8073000230393084B1B6803F02C
:100D40000103002B05D09DF807301846FFF764FC1F
:100D50000390039B184605B05DF804FB2C2500208A
:100D600000B587B003900291019200230593334AA6
:100D7000029B1360324A039B1360324A019B13604B
:100D8000039B03F00203002B2BD00023049308E005
:100D900001220121049800F065F80590049B0133BD
:100DA0000493049B032B02D8059B002BF0D0059BDA
:100DB000002B07D1029B5B081A4604212248FBF74F
:100DC00077FC0590059B002B02D1FBF7E3FC059017
:100DD000059B002B05D11D4A00211D48FCF74EFC48
:100DE0000590039B03F00103002B10D04FF0A043AC
:100DF0004FF4F012C3F808254FF0A0430022C3F8C7
:100E00000C254FF0A0434FF4F012C3F81825059BB2
:100E1000002B05D10F4A00210F48FCF72FFC05904D
:100E2000059B002B05D10D4A01210D48FCF726FC3E
:100E30000590059B184607B05DF804FB28250020A7
:100E40002C25002074250020747C0200FD05020082
:100E5000607C0200CD0C0200587C0200F90C0200FC
:100E60005C7C020084B001900B468DF80330134681
:100E70008DF8023000230393019B032B3CD89DF88F
:100E80000230012B0BD19DF80330012B04D1019BC3
:100E9000DBB20D33DBB200E000238DF802309DF8A9
:100EA0000330012B04D0022B0CD0002B15D01FE0F7
:100EB0001449019A13465B0013440B449DF8022029
:100EC0001A701BE00F49019A13465B0013440B4450
:100ED00001339DF802201A7010E00A49019A134666
:100EE0005B0013440B4402339DF802201A7005E0A6
:100EF0000723039300BF01E007230393039B1846D6
:100F000004B070477825002086B001900023059337
:100F10002EE04FF0A0421A49059B51F8233003F50B
:100F2000E07352F8233004930122059B02FA03F385
:100F30001A46019B1340002B01D0032300E000233D
:100F40000393049B23F440330493039B1B04049AF0
:100F5000134304934FF0A041094A059B52F82330F4
:100F600003F5E073049A41F82320059B01330593B0
:100F7000059B032BCDD90023184606B0704700BF50
:100F8000647C020000B583B0012200210020FFF73D
:100F900069FF0190019B002B04D0019B072B01D01E
:100FA000019B1CE0072202210120FFF75BFF01905B
:100FB000019B002B04D0019B072B01D0019B0EE06D
:100FC000042202210020FFF74DFF0190019B002B1E
:100FD00004D0019B072B01D0019B00E000231846A1
:100FE00003B05DF804FB00B583B0012202210020AC
:100FF000FFF738FF0190019B002B04D0019B072BCA
:1010000001D0019B1CE0072202210120FFF72AFFEB
:101010000190019B002B04D0019B072B01D0019B69
:101020000EE00A2200210020FFF71CFF0190019B27
:10103000002B04D0019B072B01D0019B00E0002373
:10104000184603B05DF804FB00B585B001900DF1C2
:101050000B0319460020FFF703FA0390039B002BB4
:1010600001D0039B1FE00DF10A0319460120FFF791
:10107000F7F90390039B002B01D0039B13E09DF82D
:101080000A30002B03D0019B02221A700AE09DF85F
:101090000B30002B03D0019B0B221A7002E0019B46
:1010A00000221A700023184605B05DF804FB00B555
:1010B00083B00320FFF728FF0190019B002B04D091
:1010C000019B062B01D0019B00E00023184603B0D2
:1010D0005DF804FB00B585B00190019B1B88102BC7
:1010E00002D0112B18D02FE0194B1B68002B0DD10B
:1010F000FFF748FF0390039B002B07D0154B1B689D
:10110000002B03D0134B1B6803989847104B1B68A8
:1011100001330F4A136017E00D4B1B68013B0C4A6B
:1011200013600B4B1B68002B0DD1FFF75CFF039086
:10113000039B002B07D0074B1B68002B03D0054BEC
:101140001B680398984700BF00BF05B05DF804FB1B
:10115000B0250020AC25002000B585B0019000919D
:10116000002303930D4A019B1360009B002B08D0C2
:101170000098FFF769FF0390039B002B01D0039BAE
:1011800007E0074B1B68002B02D1FFF72CFF0390F1
:10119000039B184605B05DF804FB00BFAC2500209A
:1011A000B025002074DF704700BF184676DF704717
:1011B00000BF184678DF704700BF18467ADF7047D7
:1011C00000BF18467CDF704700BF1846A7DF704796
:1011D00000BF18463CDF704700BF184648DF704725
:1011E00000BF184600B583B012491348FCF7D1FC84
:1011F00003468DF807309DF8073019460F4802F076
:101200009FFB0090009B002B0FD0009B082B0CD065
:10121000009B43F20402934207D0009B43F2014239
:10122000934202D00098FBF7D7FA00BF03B05DF8F5
:1012300004FB00BF1C2600202C260020B425002023
:1012400000B583B00190FFF7CDFF00BF03B05DF89C
:1012500004FB000000B585B001901D491D48FCF756
:1012600098FC0346ADF80E301B4B1B6801331A4A3D
:101270001360BDF80E301946184803F05EFF029067
:10128000029B002B0FD0029B082B0CD0029B43F239
:101290000402934207D0029B43F20142934202D0E0
:1012A0000298FBF799FA0C4B19680D4BA3FB01232D
:1012B0005A0813465B001344CA1A002A14BF0123BC
:1012C0000023DAB2074B1A7000BF05B05DF804FBCB
:1012D000342600204426002018270020CC2500209A
:1012E000ABAAAAAAE620002000B585B001900A4B5F
:1012F0001B78002B0CD009490948FCF74AFC03462F
:10130000ADF80E30BDF80E301946064803F05FFF09
:1013100000BF05B05DF804FBE62000204C2600204D
:101320005C260020CC25002000B583B001900C4B3A
:101330001B78002B14BF01230023DBB283F00103D1
:10134000DBB203F00103DAB2054B1A70044B1B78D1
:101350001946044803F06AFF00BF03B05DF804FBC0
:101360001C270020CC25002000B589B00023254A89
:1013700005210020FCF704F90790079B0693069BC4
:10138000002B02D00698FBF727FA1F4A01211F48BD
:10139000FCF774F90590059B0493049B002B02D085
:1013A0000498FBF719FA1A4A01211A48FCF766F962
:1013B0000590059B0393039B002B02D00398FBF73A
:1013C0000BFA154A01211548FCF758F90590059BC1
:1013D0000293029B002B02D00298FBF7FDF9104A02
:1013E00001211048FCF74AF90590059B0193019BE8
:1013F000002B02D00198FBF7EFF900BF09B05DF8B0
:1014000004FB00BF2027002041120200947C020050
:1014100055120200987C0200E91202009C7C020036
:1014200029130200A07C020000B589B09DF80430A9
:10143000012262F303038DF804309DF80430012289
:1014400062F307138DF80430224806F0D8FB0346F8
:101450009AB201AB1F491846FFF7B4FE0790079BED
:101460000693069B002B02D00698FBF7B5F940F2D5
:101470004130FFF79FFE0790079B0593059B002BCC
:1014800002D00598FBF7A8F902AB08220021184604
:10149000FBF748F84FF4A073ADF808304FF402732F
:1014A000ADF80A300023ADF80C304FF4C873ADF836
:1014B0000E3002AB1846FFF781FE0790079B04939E
:1014C000049B002B02D00498FBF786F900BF09B0FB
:1014D0005DF804FBA47C020000B585B0FFF762FE56
:1014E0000390039B0293029B002B02D00298FBF710
:1014F00073F90020FFF71AFC0390039B0193019BF3
:10150000002B02D00198FBF767F900BF05B05DF82A
:1015100004FB000000B589B0019004230493274B1D
:10152000059303AB1946019804F0DEFE0790079B74
:10153000002B36D1214B1B6803F00103002B23D075
:101540001F4B1B884FF6FF720C211846FFF73EFE1B
:101550000790079B002B17D0079B43F20202934290
:1015600012D0079B082B0FD0079B43F20402934233
:101570000AD0079B112B07D0079B43F201429342ED
:1015800002D00798FBF728F9019804F03FFF079075
:10159000079B0693069B002B0BD00698FBF71CF9C4
:1015A00007E0079B48F24002934202D00798FBF7FE
:1015B00013F900BF09B05DF804FB00BFE828002064
:1015C000E420002000B585B01B4B1B884FF6FF724E
:1015D00093421BD0184B1B8813211846FFF7E6FDDA
:1015E0000390039B0293029B002B02D00298FBF70F
:1015F000F3F80020FFF79AFB0390039B0193019BF4
:10160000002B05D00198FBF7E7F801E0FFF764FF36
:1016100002F0EAFA0390039B0093009B002B02D098
:101620000098FBF7D9F84FF4FA70FCF705FB00BF00
:1016300005B05DF804FB00BFE420002000B5A5B0B4
:1016400003238DF813301AAB142200211846FAF741
:1016500069FF00231A9301238DF86C300DF11303F9
:101660001C939DF87430012262F303038DF87430EB
:101670009DF87430012262F307138DF874309DF8E1
:1016800075306FF303038DF875309DF875306FF387
:1016900007138DF875309DF876306FF303038DF8DE
:1016A00076309DF876306FF307138DF876309DF81D
:1016B0007730012262F303038DF877309DF877309D
:1016C000012262F307138DF877309DF878306FF3BD
:1016D00003038DF878309DF878306FF307138DF899
:1016E00078301AAB19465D4803F0DEFC2390239B4B
:1016F0002293229B002B02D02298FBF76DF815ABAA
:10170000142200211846FAF70DFF9DF861300122DE
:1017100062F303038DF861309DF86130012262F3BA
:1017200007138DF861309DF86230012262F30303E4
:101730008DF862309DF86230012262F307138DF854
:1017400062309DF863306FF303038DF863309DF8CA
:1017500063306FF307138DF863309DF86430012216
:1017600062F303038DF864309DF86430012262F364
:1017700007138DF864300023159301238DF858303A
:101780000023179364238DF8603015AB1946344855
:1017900002F09EF82390239B2193219B002B02D0E3
:1017A0002198FBF719F805AB402200211846FAF7FB
:1017B000B9FE05AB2B49184603F076FD9DF8503075
:1017C000012262F303038DF850309DF8503001225E
:1017D00062F307138DF850309DF851306FF3030317
:1017E0008DF851309DF851306FF307138DF851305B
:1017F00005AB184603F0F0F82390239B2093209B21
:10180000002B02D02098FAF7E7FF01AB0C22002151
:101810001846FAF787FE144B029300230393124BEA
:1018200002930123ADF8043001AB19460F4802F0D2
:101830003BFE2390239B1F931F9B002B02D01F98DE
:10184000FAF7CAFF0A48FCF755F90A4B1B78184605
:10185000FCF75AF900BF25B05DF804FBCC25002049
:10186000B4250020B07C0200B1DA0100E826002097
:10187000C5150200E426002008B51A4B51221A6053
:10188000184B64225A60174B01229A60154B0122B3
:101890001A7314491448FCF763F9144B8C221A602C
:1018A000124B4FF496725A60104B0A229A600F4BFB
:1018B00000221A730D490E48FCF752F90D4B6422B1
:1018C0001A600C4B4FF4FA725A600A4B01229A606C
:1018D000084B00221A7307490748FCF741F900BF7B
:1018E00008BD00BF1C2600202C2600203426002026
:1018F000442600204C2600205C26002000B587B03E
:10190000214B00224FF480311846FBF7FFFE059073
:10191000059B0493049B002B02D00498FAF75CFF0C
:101920001A4B00224FF400411846FBF7EFFE0590DA
:10193000059B0393039B002B02D00398FAF74CFFFF
:10194000134B002242F266611846FBF7DFFE05905A
:10195000059B0293029B002B02D00298FAF73CFFF2
:101960000C4B00224FF420311846FBF7CFFE0590B8
:10197000059B0193019B002B02D00198FAF72CFFE5
:1019800000BF07B05DF804FB642600208426002019
:10199000A4260020C426002000B585B00190019B3C
:1019A0001B78002B0ED1094B1B883B211846FFF7F3
:1019B000FDFB0390039B0293029B002B02D0029835
:1019C000FAF70AFF00BF05B05DF804FBE420002031
:1019D00000B583B001900198FAF7FEFE00BF03B096
:1019E0005DF804FB00B58BB001AB1C22002118464A
:1019F000FAF798FD002301934FF4203302934FF43C
:101A00007023039303238DF810300E4B9B89ADF8A0
:101A1000123000238DF814300B4B06930B4B0793B9
:101A200001AB184602F096F80990099B0893089BB1
:101A3000002B02D00898FAF7CFFE00BF0BB05DF87C
:101A400004FB00BFCC25002099190200D119020027
:101A500000B585B00020FFF769F90390039B02935E
:101A6000029B002B02D00298FAF7B6FEFFF71FFB8D
:101A70000390039B0193019B002B02D00198FAF77E
:101A8000ABFEFFF7A7FB0390039B0093009B002B8B
:101A900002D00098FAF7A0FE00BF05B05DF804FB85
:101AA00000B585B003468DF807309DF80730002B50
:101AB0000FD0032B00D010E00220FFF737F903907E
:101AC000039B0293029B002B06D00298FAF784FE38
:101AD00002E0FFF7BDFF00E000BF00BF05B05DF80A
:101AE00004FB000000B585B00190019B1B88102B02
:101AF00002D0112B11D015E00720FFF717F9039042
:101B0000039B0293029B002B02D00298FAF764FE1B
:101B1000019B9A88054B1A8004E0044B4FF6FF7234
:101B20001A8000BF00BF05B05DF804FBE420002070
:101B300000B583B00190019804F090FE01990D4822
:101B400003F0F4F801990C4801F088FD019802F0C7
:101B50003DF90198FFF7BEFA0199084802F012FD1D
:101B60000198FFF7BFFF019801F0DCFB00BF03B055
:101B70005DF804FBCC250020B4250020E8260020D9
:101B800000B583B001900198FDF74CFE019801F07B
:101B90006BFC00BF03B05DF804FB000000B591B022
:101BA0002E4B1B68069306A8002348222C4905F0FB
:101BB00005FF0F900F9B0E930E9B002B02D00E98EB
:101BC000FAF70AFE01AB1A460121002005F074FF66
:101BD0000D900D9B0C930C9B002B02D00C98FAF7E8
:101BE000FBFD9DF8103043F001038DF810301D4BC4
:101BF0000B930B9805F08EFF0D900D9B0A930A9B9B
:101C0000002B02D00A98FAF7E7FD01AB184605F061
:101C100091FF0D900D9B0993099B002B02D0099811
:101C2000FAF7DAFD104805F00BFF0D900D9B0893B5
:101C3000089B002B02D00898FAF7CEFD0B4805F060
:101C40000FFF0D900D9B0793079B002B02D0079869
:101C5000FAF7C2FD00BF11B05DF804FBC47C0200BE
:101C6000EC280020E81F0020311B0200811B02002D
:101C700000B587B003468DF807309DF80730072B75
:101C80001AD00A2B02D0042B03D027E0FFF7E0FE86
:101C900024E0144B1B8813211846FFF787FA0590A0
:101CA000059B082B17D0059B0393039B002B12D099
:101CB0000398FAF791FD0EE001F006FC0590059BF4
:101CC000082B0AD0059B0493049B002B05D0049895
:101CD000FAF782FD01E000BF00E000BF00BF07B0DF
:101CE0005DF804FBE420002000B587B0039002916A
:101CF0000192019B0593059B002B02D00598FAF7F2
:101D00006BFD029B1B78152B02D10398FFF702FC99
:101D10000023184607B05DF804FB000000B58BB047
:101D200003468DF807309DF807308DF81430FDF725
:101D3000E3FE0990099B0893089B002B02D00898AA
:101D4000FAF74AFD05AB184604F01EF90990099B05
:101D50000793079B002B02D00798FAF73DFD02ABD3
:101D60000533052200211846FAF7DCFB9DF80D30FB
:101D700043F001038DF80D309DF80D306FF34103F2
:101D80008DF80D309DF80D306FF382038DF80D3016
:101D90009DF80D306FF3C3038DF80D309DF80D30B5
:101DA000032262F306138DF80D309DF80D306FF3AA
