:020000021000EC
:10C000000000012025F501004DF501004FF501006C
:10C0100051F5010053F5010055F501000000000045
:10C0200000000000000000000000000057F50100C3
:10C0300059F50100000000005BF501005DF501000D
:10C040005FF501005FF50100F5D801005FF5010023
:10C050005FF501005FF5010051D401005FF50100BB
:10C060005FF501005FF501005FF501005FF501007C
:10C070005FF501005FF501005FF501005FF501006C
:10C080005FF50100C5C801005FF501005FF5010023
:10C0900089C901005FF5010091F401005FF501001D
:10C0A0005FF501005FF501005FF501005FF501003C
:10C0B0005FF501005FF501000000000000000000D6
:10C0C0005FF501005FF501005FF501005FF501001C
:10C0D0005FF501005FF501005FF501000000000061
:10C0E0000000000000000000000000000000000050
:10C0F0000000000000000000000000000000000040
:10C10000000000000000000000000000000000002F
:10C11000000000000000000000000000000000001F
:10C4000010B5054C237833B9044B13B10448AFF38E
:10C4100000800123237010BDF820002000000000E0
:10C4200030F6010008B5034B1BB103490348AFF3D5
:10C43000008008BD00000000FC20002030F6010054
:10C44000154B002B08BF134B9D46A3F5803A0021E6
:10C450008B460F461348144A121A00F063F80F4B2C
:10C46000002B00D098470E4B002B00D0984700209F
:10C47000002104000D000D48002802D00C48AFF345
:10C48000008000F02BF82000290001F049FC00F0AA
:10C4900011F800BF000008000000012000000000AB
:10C4A00000000000F820002084240020000000008C
:10C4B0000000000008B5074B044613B10021AFF39C
:10C4C0000080054B1868836A03B19847204600F046
:10C4D00031F800BF00000000A0F5010070B50D4E5E
:10C4E0000D4CA41BA4100025A54209D10B4E0C4CE9
:10C4F00003F04AF8A41BA4100025A54205D170BD85
:10C5000056F8253098470135EEE756F8253098471C
:10C510000135F2E7F0200020F0200020F02000207C
:10C52000F420002002440346934200D1704703F8F0
:10C53000011BF9E7FEE700BF2DE9F84F254B93F803
:10C5400000C0BCF1000F31D0DFF88CB0DFF88CA058
:10C55000DFF88C900024012703E00134E4B2644545
:10C5600024D226B2DBF80050DAF8003015F8360095
:10C5700007FA00F10B4205EBC608EED023EA0103EF
:10C58000CAF8003000F05AFF15F83660D9F80030CC
:10C5900007FA06F52B4000FA06F18B4208D00D4B46
:10C5A000013493F800C0E4B26445DAD3BDE8F88FF3
:10C5B00098F80110D8F80430A1F10101B1FA81F125
:10C5C0004909091AB1FA81F14909002BE7D030462F
:10C5D0009847E4E714210020442100204021002056
:10C5E0003C21002070B50646114800F015FD40B909
:10C5F000104D01242B68B440234203D023EA0404E5
:10C600002C6070BD304600F019FF0B490A6860B11C
:10C6100022432B6809480A601C4301682C600448C7
:10C620000022BDE8704000F091BC22EA0402F0E76D
:10C630001C210020402100203C2100201821002046
:10C64000042A34D92DE9F04182B00F46064614463B
:10C6500000F088FD002834D01C4A1D4B1D4916608F
:10C660001F701D4A1D4B0C6000257C1E15601D604F
:10C67000E4B2F7B106EBC404194F083E4FF00308CB
:10C6800001E0B44215D0A37820788DF804803A46B2
:10C6900001A98DF806508DF807508DF8053000F08F
:10C6A0006BFD083C0028ECD002B0BDE8F08107200B
:10C6B00070470C4A0C48002100F036FC02B0BDE87F
:10C6C000F08100F01FFD0028C6D0EDE744210020D6
:10C6D00014210020182100203C21002040210020AE
:10C6E000E5C5010039C50100A4F5010070B5084D8C
:10C6F0002B785BB1074E00243368012113F8340016
:10C7000000F008FE2B780134A342F5D8002070BD5C
:10C71000142100204421002070B5094D2B7853B11D
:10C72000084E0024336813F8340000F055FE2B78CF
:10C730000134A342F6D80448BDE8704000F06CBC58
:10C7400014210020442100201C21002000B585B0C8
:10C7500000230390194601AA44F20100ADF8043009
:10C76000029300F003F805B05DF804FBBFF34F8FB0
:10C770000549064BCA6802F4E0621343CB60BFF37D
:10C780004F8F00BFFDE700BF00ED00E00400FA0599
:10C79000484B494830B401214FF480344FF4003500
:10C7A0002F22C0F88050C3F848431046C3F808430E
:10C7B0005960013800BF00BF00BF00BF00BF00BF0D
:10C7C00000BF00BF00BF00BF00BF00BF00BF00BF71
:10C7D00000BF00BF00BF00BF00BF00BF00BF00BF61
:10C7E00000BF00BF00BF00BF00BF00BF00BF00BF51
:10C7F00000BF00BF00BF00BF00BF00BF00BF00BF41
:10C8000000BF00BF00BF00BF00BF00BF00BF00BF30
:10C8100000BF00BF00BF00BF00BF00BF00BF00BF20
:10C8200000BF00BF00BF00BFC3D1244C99600023EC
:10C8300010462360013800BF00BF00BF00BF00BF2B
:10C8400000BF00BF00BF00BF00BF00BF00BF00BFF0
:10C8500000BF00BF00BF00BF00BF00BF00BF00BFE0
:10C8600000BF00BF00BF00BF00BF00BF00BF00BFD0
:10C8700000BF00BF00BF00BF00BF00BF00BF00BFC0
:10C8800000BF00BF00BF00BF00BF00BF00BF00BFB0
:10C8900000BF00BF00BF00BF00BF00BF00BF00BFA0
:10C8A00000BF00BF00BF00BF00BFC3D1044A137068
:10C8B00030BC70470010014000E100E05C21002026
:10C8C0004D2100202DE9F843274A284B0024C2F8C7
:10C8D0004041C2F84441C2F84841C2F84C41C2F854
:10C8E0000041C2F804411B681BB32149D2F804552A
:10C8F0000A68204FAD1A1A6825F07F45AA42A04663
:10C9000009D8197CDE69AD1A1444A1B91EB13346A9
:10C910001A68AA42F5D91849184A0B7812789A422F
:10C9200017D01749174A41F823404FF48013C2F833
:10C930000031BDE8F88383F81080D3E905933A68A5
:10C940004846194662B190470028DFD0FFF7FEFE47
:10C95000DCE7531CDBB2022B08BF00230B70E0E7BF
:10C960001846C847D2E700BF0010014064210020EC
:10C970005C2100204821002059210020582100205E
:10C980005021002000E100E02DE9F04FA24AA34928
:10C9900013780978DFF8A0B28BB0DBF800000690BE
:10C9A000994200F037820133DBB2022B08BF00232B
:10C9B00013709B4A52F82390069B4B4423F07F430D
:10C9C0000793CBF8003001230593964B964A1978CC
:10C9D000964B12681878964B09921B6801914FF09C
:10C9E000000E029003938C460490F24677469846D8
:10C9F000CDF820900CF1FF3C5FFA8CFCBCF1FF0FEE
:10CA00004CD00FFA8CF308EBC30418F8333094F8C9
:10CA100001904B45EED003EB43006168A67811F816
:10CA200030500133DBB29E4208BF0023022D01EBE0
:10CA3000C0010CD0032DECD1002AEAD01774D269C2
:10CA4000002AFBD194F801904FF0010EE1E74D6808
:10CA5000002ADED09542104601D111E00846C16996
:10CA60000029D6D08D42F9D185420AD0EE692D68D1
:10CA7000C66116B131682944316094F80190C8E765
:10CA80001546D2694FF0010E002AEFD16949F246EE
:10CA9000C1F808E0CDF810E00792E7E7DDF8209054
:10CAA000BAF1000F40F0D081BEF1000F40F0C98113
:10CAB0005D4B059A1B680493002A40F08681099A11
:10CAC000D31A18BF0123059300234FF0000ADBF8A7
:10CAD0000040DFF86881049A51464FF0010E01983A
:10CAE0000138C0B2FF28019000F0AA8005460398E3
:10CAF00000EBC5055BB3D3E901C01F46DB69ACEBB6
:10CB0000040626F07F46464558D830443860C7E9C9
:10CB1000011187F810E0F961002A5FD0166886429B
:10CB20006AD29C469146334603E0336883426AD218
:10CB3000B146D9F81C60C01A002EF6D16346B4463F
:10CB40003860C7F81CC0C9F81C70002BD3D195F809
:10CB500001C02878471C844500EB4006F8B2BED0DF
:10CB600095F802906F682870814508BF297007EB1F
:10CB7000C60B17F8366008BF0020012EEAD1DBF89B
:10CB800004703E7C002EE5D1DBF808C0C7F804C075
:10CB9000DBF80C00B860B146DBF81060FE60DBF833
:10CBA0001460BE61029E002EA9D0CC46ACEB0406F8
:10CBB00026F07F464645C7F80490A6D9A4EB0C0C96
:10CBC0002CF07F4C84450DD2A0EB0C003860C7E9F7
:10CBD000011187F810E0F961002A9FD13A464FF021
:10CBE000010A87E7C7E90011B96087F810E0F96129
:10CBF000002AF3D016680020301A10604FF0010AA6
:10CC0000FA613A4676E79B466346B4465E46361A74
:10CC1000CCF8006094E700BF582100205921002083
:10CC20005021002060210020642100204C210020A0
:10CC300068210020001001405C210020FEFF7F00E1
:10CC4000BAF1000F40F0F480059B002B69D0049BE3
:10CC5000002B00F0EA80824A8249D2F804551E680F
:10CC600008782B1B23F07F43033300285FD09E42BC
:10CC70002CBFA319E3187A4923F07F43C1F840354C
:10CC8000D1F80425521B5B1B22F07F4223F07F4327
:10CC900003329A4245D9D1F80435C1F840352F20E6
:10CCA000013800BF00BF00BF00BF00BF00BF00BF12
:10CCB00000BF00BF00BF00BF00BF00BF00BF00BF7C
:10CCC00000BF00BF00BF00BF00BF00BF00BF00BF6C
:10CCD00000BF00BF00BF00BF00BF00BF00BF00BF5C
:10CCE00000BF00BF00BF00BF00BF00BF00BF00BF4C
:10CCF00000BF00BF00BF00BF00BF00BF00BF00BF3C
:10CD000000BF00BF00BF00BF00BF00BF00BF00BF2B
:10CD100000BF00BF00BFC3D1534B4FF40032C3F874
:10CD20000021524A002313700BB0BDE8F08F4E482B
:10CD30004FF48037C2F844734FF4003CC2F80473D8
:10CD40000127C0F880C1C0F800C02F20176001384B
:10CD500000BF00BF00BF00BF00BF00BF00BF00BFDB
:10CD600000BF00BF00BF00BF00BF00BF00BF00BFCB
:10CD700000BF00BF00BF00BF00BF00BF00BF00BFBB
:10CD800000BF00BF00BF00BF00BF00BF00BF00BFAB
:10CD900000BF00BF00BF00BF00BF00BF00BF00BF9B
:10CDA00000BF00BF00BF00BF00BF00BF00BF00BF8B
:10CDB00000BF00BF00BF00BF00BF00BF00BF00BF7B
:10CDC00000BF00BFC3D10F7051E700201A460146D3
:10CDD00003460646DDE9057CAAB114684C451FD818
:10CDE000D0681660A9EB04092144D46938B10CEB72
:10CDF000010525F07F45C2E90150D3611346224663
:10CE00003846002AE9D100283FF45FAE1849049261
:10CE10000A605AE64FF00009CDF814900790D4E567
:10CE2000D0B9A4EB090414604FE6FFF7B1FC78E732
:10CE30000F4B1A60049B9A4218BF04927FF407AF0D
:10CE400002E70B4B1A6033E6084B04981870079BF7
:10CE5000CBF80030029027E6054904920A60E0E72B
:10CE6000001001404D21002000E100E04C21002095
:10CE7000642100202DE9F04112F0030639D1002A87
:10CE80003AD00D4614461F468046FFF781FC05EB5D
:10CE9000450204F11801D2008B1861601A44194947
:10CEA00019486261E360194A194B0F60066019491D
:10CEB00026800320A5702681A5722682A574107095
:10CEC0001C60154A154B164C0E704FF48010C02193
:10CED0002670C3F8800183F814131860C2F808851F
:10CEE000104883F81113D2F8043503603046BDE8CA
:10CEF000F0810720BDE8F081054B1A600720BDE8EE
:10CF0000F08100BF48210020642100206021002022
:10CF100068210020582100200010014000E100E0BD
:10CF2000592100205C210020074B1B683BB142B116
:10CF300038B10368187C10B959745A6170470820D9
:10CF400070470720704700BF682100202E4B1B68E8
:10CF500023B318B304291FD9F0B54469002C51D06C
:10CF6000447C012C0CBF0E460026EFF30584C4F36D
:10CF70000804ACB1103C65B2002D3ADB05F1604508
:10CF800005F5614595F800436409E4B2022C08D028
:10CF9000062C05D1083304E00720704708207047AD
:10CFA00010335C7893F802C01F78651CEDB2AC4575
:10CFB00008BF0025AF4223D004EB4404D3F804C0DB
:10CFC000E4001CEB04071BD04FF0010E0CF804E04A
:10CFD000DFF840C07860DCF804050C4CB860C7E9A5
:10CFE00003164FF4801C7A615D70C4F800C1002004
:10CFF000F0BD074D04F00F0425442C7E6409C4E7FE
:10D000000420F0BD0820F0BD6821002000E100E010
:10D01000FCEC00E000100140254B1B68002B39D0D0
:10D02000002837D04269002A34D00022F0B40274BC
:10D03000EFF30582C2F308027AB1103A51B2002927
:10D040002FDB01F1604101F5614191F800235209A4
:10D05000D2B2022A02D0062A1ED010335A789D7806
:10D060001C78511CC9B28D4208BF00218C4215D0DA
:10D0700002EB42025C68D200A5180FD00D4E0227C9
:10D08000A7544FF4801268605970C6F80021002040
:10D09000F0BC7047082070470833DFE70420F0BC7D
:10D0A0007047054902F00F0211440A7E5209CFE78A
:10D0B0006821002000E100E0FCEC00E049010028CC
:10D0C00010B4C9B2C3B215DB00F1604202F561428F
:10D0D00082F800134009800000F1604000F56140D3
:10D0E00003F01F0201239340C0F8803103605DF814
:10D0F000044B7047024A03F00F0422441176E9E71B
:10D10000FCEC00E038B5154C94F8545025BB0621D2
:10D110004FF0FF330846C4E90033C4E90233C4E9E1
:10D120000433C4E90633C4E90833C4E90A33C4E963
:10D130000C33C4E90E33C4E91033C4E91233236558
:10D14000FFF7BCFF064A4FF000410123C2F8041369
:10D15000284684F8543038BD082038BD6C210020A2
:10D1600000600040034B93F85400003018BF0120CA
:10D17000704700BF6C210020F0B4654B1C1894F977
:10D180003050002D66DACE78002E5DD11D6A013553
:10D1900000F0AD8009240C2553F8247001375DD0D0
:10D1A00004F1010C53F82C70013700F0AA8004F14F
:10D1B000020CAC4545D253F82C70013700F0A18029
:10D1C00004F1030CAC453CD253F82C70013700F04D
:10D1D000988004F1040CAC4533D253F82C7001371D
:10D1E00000F08F8004F1050CAC452AD253F82C7066
:10D1F000013700F0868004F1060CAC4521D253F8CB
:10D200002C7001377DD004F1070CAC4519D253F8CE
:10D210002C70013775D004F1080CAC4511D253F8CD
:10D220002C7001376DD004F1090CAC4509D253F8CC
:10D230002C70013765D00A34AC4202D2DC6A01346A
:10D240000BD00420F0BC70471D6801355BD0012471
:10D250000825A1E70820F0BC70470B241F1865B211
:10D2600043F8242087F83050002E46D08A78B2B197
:10D27000820002F1A042D2F8004724F00204C2F872
:10D280000047CA780978B2B9083D2B44104693F894
:10D29000502042EA811183F85010F0BC70474C785E
:10D2A00000F5E0724FF0A046A40046F82240CA788C
:10D2B0000978002AE8D0AB0003F1804303F5C043AE
:10D2C0000002D3F8102522F4473222F44072C3F84A
:10D2D0001025090400F4F850D3F8102501F440316A
:10D2E00001431143C3F810150020F0BC7047082615
:10D2F00084F830601A62354634461C4484F848008D
:10D30000B4E76446AAE700251A6084F83050ADE718
:10D310006C21002070B42E4D2E1883B096F9303059
:10D32000072B1CDD2B4493F848309B09032B41D07D
:10D33000012B14BF4FF440314FF40031800000F155
:10D34000A040D0F8002722F44032C0F80027D0F8DF
:10D3500000370B43C0F8003703B070BC7047DAB237
:10D36000072AF9D8980000F1804000F5C04003F189
:10D370004002D0F81045920092B244F0010402F14C
:10D380008042C0F8104502F5C04200200190019C87
:10D3900010600029E0D096F9302055F82220002AAC
:10D3A000DAD001220B4902FA03F3C1F8043303B0C7
:10D3B00070BC70474FF0A0420123D2F81025834083
:10D3C00013420CBF4FF400314FF44031B6E700BFB9
:10D3D0006C21002000600040164B034493F930306C
:10D3E000072B18DCDAB2072A14D810B49A0002F11D
:10D3F000804202F5C042104CD2F81005012120F005
:10D40000010001FA03F3C2F81005C4F808335DF80F
:10D41000044B70477047800000F1A040D0F80037FF
:10D4200023F44033C0F80037D0F80037C0F8003795
:10D43000704700BF6C210020006000404FF0A04307
:10D44000D3F8103523FA00F000F00100704700BF58
:10D450002DE9F043BF4B1A68012A83B000F0AC817C
:10D460000027BD4B1A68012A00F09881BB4B1A684F
:10D47000012A00F08581BA4B1A68012A00F05C810C
:10D48000B84B1A68012A00F04981B74B1A68012A83
:10D4900000F03681B54B1A68012A00F02381B44BA5
:10D4A0001A68012A0DD0B34B1B68012B00F0918143
:10D4B000002617F0FF0F15D1002F30DB03B0BDE8B9
:10D4C000F083AD4AD2F804231406ECD500261E6082
:10D4D0001A6800926033009A1B68012B47F080079E
:10D4E00000F07781DFF8948201250024A30003F186
:10D4F00080432F4203F5C0434FEA45050AD0D3F8D5
:10D500001005D3F8101558F82430C0F30420C1F3E7
:10D51000014198470134082CE8D1002FCEDA974C0E
:10D5200094F95010481C4FF0FF394FF000074FF0AE
:10D53000010800F0AB80C9B221F0C00029FA00F563
:10D5400015F001051BD02318890993F9303054F8E0
:10D550002330002B00F05281032908FA00F500F077
:10D560005281820002F1A0423540D2F800C7CCF3CC
:10D57000014C40F0AB80BCF1030F00F0838194F9C3
:10D5800051104A1C22D0C9B221F0C00029FA00F380
:10D59000DB071BD52318890993F9303054F8232071
:10D5A000002A00F03A81032908FA00FE00F03A81CF
:10D5B000830003F1A04316EA0E0FD3F800C7CCF3A3
:10D5C000014C65D1BCF1030F00F0488194F9521071
:10D5D000481C22D0C9B221F0C00029FA00F3DA07B2
:10D5E0001BD52318890993F9303054F82320002AD9
:10D5F00000F00B81032908FA00FE00F00B81830084
:10D6000003F1A04316EA0E0FD3F800C7CCF3014C88
:10D6100048D1BCF1030F00F0488194F953104B1C22
:10D6200023D0C9B221F0C00029FA00F919F0010F86
:10D630001BD02318890993F9303054F82390B9F19D
:10D64000000F00F0D380032908FA00FC00F0D3801B
:10D65000830003F1A04316EA0C0FD3F80027C2F3AE
:10D66000014229D1032A00F0E080002D3FF426AFCB
:10D670004FF0A043B946D3F810359E423FF41EAF99
:10D6800094F95010481C1E467FF455AF002576E7EC
:10D69000BCF1020F9AD1032900F01B81002A95D01A
:10D6A000904793E7BCF1020FB7D1032900F0148132
:10D6B000002AB2D09047B0E7022AD6D1032900F061
:10D6C0000E81B9F1000F40F0C780CEE7BCF1020F28
:10D6D000DCD1032900F006810025002B3FF44FAF79
:10D6E00098474CE7244AD2F8042355067FF5D7AE75
:10D6F00000221A601B680093009B47F04007CEE6AB
:10D700001D4AD2F8042396067FF5C4AE00221A60A3
:10D710001B680093009B47F02007BBE6164AD2F82F
:10D720000423D2067FF5B1AE00221A601B68009375
:10D73000009B47F01007A8E60F4AD2F80423110710
:10D740007FF59EAE00221A601B680093009B47F095
:10D75000080795E600610040046100400861004050
:10D760000C610040106100401461004018610040ED
:10D770001C6100407C610040006000406C21002082
:10D780005A4AD2F8042350077FF575AE00221A607A
:10D790001B680093009B47F004076CE6534AD2F8DD
:10D7A000042394077FF562AE00221A601B68009381
:10D7B000009B47F0020759E64C4AD2F8047317F071
:10D7C00001073FF44EAE00221A601B680093009BD5
:10D7D00047E6474B00221A601B6801934FF0A043B5
:10D7E000019AD3F8106547F0004762E603297FF4F9
:10D7F0003CAF08FA00FC47EA0C0729E703297FF44D
:10D8000045AF08FA00F52F43ABE603297FF405AFD7
:10D8100008FA00FE47EA0E07F1E603297FF4D6AEC8
:10D8200008FA00FE47EA0E07C2E603297FF449AF73
:10D830004FF4003CD3F8002722F44032C3F800270D
:10D84000D3F80027013542EA0C02EDB2C3F80027F5
:10D85000B9F1000F3FF40CAFC84706E703297FF486
:10D860001DAF4FF4003ED3F800C72CF4403CC3F882
:10D8700000C7D3F800C701354CEA0E0CEDB2C3F86F
:10D8800000C70BE703297FF428AF4FF4003CD2F820
:10D89000005725F44035C2F80057D2F8005745EA42
:10D8A0000C05C2F80057012517E703297FF400AFE4
:10D8B0004FF4003ED3F800C72CF4403CC3F800C737
:10D8C000D3F800C701354CEA0E0CEDB2C3F800C71F
:10D8D000EEE64FF4403EC6E74FF4403EEAE74FF431
:10D8E000403CA7E74FF4403CD1E700BF0060004058
:10D8F0007C610040F0B59F4C237F85B0002B70D138
:10D900009D4AD2F80413890544D49B4BD3F80423D1
:10D9100052070ED5994A116859B1E17D002940F0AE
:10D92000F9801160D3F81835637EE27D9A4200F0E9
:10D93000DC80934B1A6892B1A18AA27D8A4200F2E0
:10D94000A0800020186052B1A3688DF800000193F8
:10D95000A0758DF80820D4E9001368469847894BD4
:10D960001A68AAB1A27E00211960002A40F08480C2
:10D97000E37D6BB1637EE2688DF80830019201238C
:10D9800000228DF80030E275D4E90013684698470C
:10D9900005B0F0BD7C4908680028B6D0A07E0B60B9
:10D9A0004FF40173C2F8083328B903F1804303F53B
:10D9B000F05301221A60704A02238DF80030D2F829
:10D9C0008034C2F88034E07DE268039300238DF850
:10D9D0000800019221686268E375684623769047E3
:10D9E000A7E769490B68002B59D0634A002302203E
:10D9F0000B608DF80000D2F88014C2F880140391F7
:10DA0000D2F83C15E2688DF808100192216862682E
:10DA1000E3756846237690475A4B1A689AB1E17DC0
:10DA200000221A6079B1A3F5A273E168D3F83C35FE
:10DA30008DF80830012301918DF800306846D4E953
:10DA40000013E2759847514B1A68002AA0D0A17DB7
:10DA500000221A6000299BD04749A368D1F84C15D1
:10DA60008DF8081001938DF80020D4E90013A275F9
:10DA70006846984705B0F0BDA3F5A27301221A606D
:10DA800076E700221A60A28AA38AA0683A4992B275
:10DA90000133825C9BB2A382C1F81C255FE73C4A3C
:10DAA00011680029B8D0344D1360D5F83C25E07DCD
:10DAB000D2B29042B0D1227EE768D4E90016002AA3
:10DAC00034D0D5F800C2E2752CF02002C5F800224F
:10DAD0004FF0010C22698DF8080001978DF800C005
:10DAE00068462376E260B04796E7237E43B3E26858
:10DAF000617E01922569E375012200238DF80810EB
:10DB00008DF800206846D4E90012E560237663763C
:10DB100090470EE700211160627ED3F81805637EFE
:10DB2000E1680133DBB288546376FDE601238DF8AA
:10DB3000080001978DF800306846E275B0476BE742
:10DB4000A37E13B9134B01221A600B4AE068636885
:10DB50004FF40171C2F80813627E8DF8082001228B
:10DB600001908DF80020216800226846E2759847F0
:10DB7000DFE600BFC4210020002000400821004053
:10DB80001C2100404421004024210040202100406D
:10DB9000102100400420004070DF704771DF7047A3
:10DBA00073DF704776DF70477ADF70477CDF70473E
:10DBB0007FDF7047A9DF704748DF70474FF0A04311
:10DBC00031B94FF40022C3F80825C3F80C1570478B
:10DBD0004FF400210022C3F80C15C3F80825704744
:10DBE000FEF7B4BD08B5037803B108BD054B3B2172
:10DBF0001888FFF7D7FF0028F7D0BDE80840FEF7E8
:10DC0000A5BD00BFE82000200D280ED108B50848AA
:10DC100001F024FA30F0080209D043F202029042E7
:10DC200005D0BDE80840FEF791BDFEF78FBD08BDE9
:10DC3000F423002010B50388112B86B004463AD097
:10DC400020D9132B12D0522B07D1334A002310882E
:10DC500019461A46FFF7AEFF88B9204601F06EF864
:10DC600021462E4801F002F906B010BD2A4A0023D1
:10DC7000108885211A46FFF79BFF0028EDD0FEF79C
:10DC800065FDEAE7102BE8D14FF0A0434FF4802167
:10DC900000224FF40030C3F80C15C3F808251E49C4
:10DCA000C3F80805C3F80C25A3880B80FEF71EFDFA
:10DCB0000028D2D0E3E74FF0A0434FF480210020AA
:10DCC000154AC3F808154FF6FF71C3F80C0511800B
:10DCD000FEF722FDE8B9182268460021FEF722FC73
:10DCE0000023402268468DF8003001938DF80830FB
:10DCF0000492FFF755FF48B94FF0A0434FF40031AD
:10DD00000022C3F80C15C3F80825A6E7FEF71EFD90
:10DD1000F2E7FEF71BFDDEE7E8200020F4230020F9
:10DD200000B500239FB04FF460204FF0A0410322C4
:10DD300003E0ED0748BF41F824200133202B40FACF
:10DD400003F503F5E074F4D14FF0A0424FF46021E5
:10DD50000023C2F808151846C2F80C350521684A98
:10DD6000FFF788F808B1FEF7F1FC40F26662012186
:10DD70006448FEF765FC08B1FEF7E8FC624B6349B6
:10DD80001A681EAC002344F8742D4822204601F086
:10DD90003DFB08B1FEF7DAFC10AA0121002001F0DA
:10DDA0008FFB08B1FEF7D2FC594801F0A1FB08B186
:10DDB000FEF7CCFC10A801F0A5FB08B1FEF7C6FCED
:10DDC00002A8FFF7EBFE08B1FEF7C0FC02A9002095
:10DDD000FFF7E2FE08B1FEF7B9FC4E4801F04EFB3A
:10DDE00008B1FEF7B3FC11234B488DF8083001F061
:10DDF000C2FB494982B202A8FFF7D8FE08B1FEF77C
:10DE0000A5FC0822002110A8FEF78CFB434B1093C1
:10DE100010A84FF0C8731193FFF7C6FE08B1FEF7C4
:10DE200095FC3F4B3F48109310A901F041F808B111
:10DE3000FEF78CFC3B4A927C8DF8062041F223537E
:10DE40003822002102A8ADF80430FEF76BFB022057
:10DE50000125062300218DF80800382210A88DF82E
:10DE60000A508DF80B30FEF75DFB02A810A9ADF843
:10DE70005050159400F0B2FB08B1FEF767FC1C226D
:10DE8000002110A8FEF74EFB00234FF42020264A65
:10DE90001093ADF84E308DF85030244B11904FF464
:10DEA0002034032110A812948DF84C10CDE91523CD
:10DEB00000F00AFF08B1FEF749FC1822002110A863
:10DEC000FEF730FB0023402210A88DF8403011935C
:10DED0008DF848301492FFF763FE08B1FEF736FC68
:10DEE0004FF0A0434FF400310022C3F80C15C3F8E3
:10DEF0000825FFF761FE0028FBD0FEF727FCF8E7B6
:10DF0000E4210020E0200020A8F50100AC2300203F
:10DF1000E81F002035DC0100ACF501005000A00036
:10DF2000BDDB0100F4230020E5DB0100E1DB0100A3
:10DF300071DF704772DF704779DF70477DDF7047B0
:10DF400065DF70472DE9F04F85B004880E9FBDF85E
:10DF50003C903D880195002C00F0A8804FF000080F
:10DF600093468A460646444603E03288013494428A
:10DF70002BDA726852F82400039000220DF10B0195
:10DF800003A8FFF7DDFF054600286CD19DF80B20A4
:10DF9000022AEAD13A88911CB8F1000F67D089456E
:10DFA00072DB1A440DF10B0103A8FFF7C9FF4FF014
:10DFB00001080546002856D139889DF80B200A44EF
:10DFC0003A80328801349442D3DB3C88B8F1000FA8
:10DFD00008D00199621E521A92B2FF2A54D85A549C
:10DFE0003C883288002A61D04FF0000AD04604E015
:10DFF000328808F1010890452BDA726852F828003F
:10E00000039000220DF10B0103A8FFF799FF0546CD
:10E0100048BB9DF80B20102AEAD13A8802F1100182
:10E02000BAF1000F35D049452EDC1A440DF10B0131
:10E0300003A84FF0010AFFF783FF002838D1398881
:10E040009DF80B200A443A80328808F10108904577
:10E05000D3DBBAF1000F29D03A88013A121B92B2F1
:10E06000FF2A11D81A55284605B0BDE8F08F511C7B
:10E070000432914589B207DB398003F801A03A8860
:10E08000013292B23A808CE70C25284605B0BDE8F3
:10E09000F08F511C1232914589B2F5DB398003F8BB
:10E0A00001B03A88013292B23A80BEE70025DAE741
:10E0B0000546D8E72DE9F047002317881380436B06
:10E0C00086B0A3B1022F40F28D8102251C780D701D
:10E0D000138801339BB211251380CD54138801336B
:10E0E0009BB21380CC54138801339BB21380046B12
:10E0F000002C70D003F11205BD4200F2738111258E
:10E10000CD54138801339BB210251380CD5413884E
:10E1100001339BB21380E57BCD54138801339BB24E
:10E120001380A57BCD54138801339BB21380657B8C
:10E13000CD54138801339BB21380257BCD541388B3
:10E1400001339BB21380E57ACD54138801339BB21F
:10E150001380A57ACD54138801339BB21380657A5E
:10E16000CD54138801339BB21380257ACD54138884
:10E1700001339BB21380E579CD54138801339BB2F0
:10E180001380A579CD54138801339BB21380657930
:10E19000CD54138801339BB213802579CD54138855
:10E1A00001339BB21380E578CD54138801339BB2C1
:10E1B0001380A578CD54138801339BB21380657802
:10E1C000CD54138801339BB213802478CC54138828
:10E1D00001339BB2138090F82E40002C40F0FF805A
:10E1E000144690F82D200D460646002A40F0FE8089
:10E1F000B278002A40F05281F278A2B1D91CB9421B
:10E2000000F2F0800221E954238801339BB20121FE
:10E210002380E95423880B449BB22380EA5423884B
:10E220000B449BB223807268AAB1D91CB94200F298
:10E23000D980022192F90020E954238801339BB24E
:10E240000A212380E954238801339BB22380EA54B6
:10E250002388013323803389002B40F00381338AE4
:10E26000002B40F00C81338B002B40F03781306A5B
:10E27000002847D0B4F800C00CF10603BB4200F2FE
:10E28000B1800388052B40F207816FF4486803EBE7
:10E29000080292B24FF27D318A4240F2FD804288FC
:10E2A000052A40F2F9806FF4486E96441FFA8EFEFC
:10E2B0008E4540F2F1804FF6FF718B4204D08A42C6
:10E2C00002D0934200F2E880052305F80C30238841
:10E2D00001339BB212222380EA54238801339BB27C
:10E2E00023800288EA542B44120A5A70238802338E
:10E2F0009BB223804288EA542B44120A5A70238826
:10E3000002332380736A002B2FD09988B4F800C0A1
:10E31000881C0CF102020244BA4263D8FE2861D87C
:10E32000033105F80C102288013292B2FF212280BD
:10E33000A9542288013292B222801988A9542A4411
:10E34000090A51702088023080B220809A8862B118
:10E3500099680393002900F09F80284401F000F998
:10E36000039B9A8823881344238096F82C30002B33
:10E3700040F0D9803078002835D03388012B00F068
:10E380008B80228802F1020CBC452BD8012804D1D5
:10E390007378023313449F4224D3BB1E9B1A06A9F1
:10E3A0009BB221F8083D05EB0C00FFF7C7FDD0B983
:10E3B0003278022A00F00381012A00F00881082146
:10E3C000FE2B0FD822885E1CAE542288013292B2F6
:10E3D0002280A954228801321344238003E0DD1CEB
:10E3E000BD422CD90C2006B0BDE8F0870933BB42F2
:10E3F000F8D804A8FFF79CFD0028F4D12388082250
:10E40000CA54238801339BB21B222380CA5420881C
:10E41000013080B22080062208440DF1110101F084
:10E420009FF823889DF8102006339BB2238002B109
:10E430000122EA54238801339BB22380D8E60225C7
:10E44000CD54138801339BB21C251380CD541388FF
:10E4500001339BB2013C1380032C1DD8DFE804F08C
:10E46000605D5A4BCDE900472B460622022106F19A
:10E470000800FFF767FD00283FF4F1AEB3E7CDE9F0
:10E4800000472B460722032106F11000FFF75AFD33
:10E4900000283FF4E8AEA6E70720A4E70433BB4218
:10E4A000A0D804A8FFF748FD00289CD12388BDF818
:10E4B00010200321E954238801339BB219212380C2
:10E4C000E954238801339BB2E9182380EA54130AE4
:10E4D0004B70238802339BB223808DE6CDE9004741
:10E4E0002B461522142106F11800FFF72BFD0028FA
:10E4F0003FF4BDAE77E70324CC54138801339BB2BD
:10E500001380144690F82D200D460646002A3FF44D
:10E510006FAE6BE70224CC54EFE70124CC54ECE758
:10E520000024CC54E9E7D6F82890B9F1000FB3D015
:10E53000B9F804200232FE2A3FF654AF23884FF088
:10E5400000084FF0160A0132EA54238801339BB2C7
:10E55000238005F803A0238801339BB22380B9F8F8
:10E560000020EA542B44120A5A70238802339BB2CB
:10E570002380B9F80410E8180A4661B1D9F80830C8
:10E580001946002B88D000F0EBFFB9F8042023884F
:10E5900013449BB2238008F1010896F82C205FFAFF
:10E5A00088F8424508EB48097FF6E4AEB26A02EB10
:10E5B0008909B9F804200232FE2AC4D912E7BDF84D
:10E5C00010209342FFF4FBAE13460921F8E672785F
:10E5D0009342FFF4F4AE13460821F1E62DE9F0432F
:10E5E00095B01F230D46ADF80E300446002800F00C
:10E5F0000E81C3785B0740F10681466B0022ADF8BF
:10E600000C20002E00F0AB8133788DF812300322FD
:10E6100041F20213ADF810301646ADF80C2010464A
:10E6200005230421226B002A40F0FA8094F82E2062
:10E63000002A40F0988194F82D30002B40F055814D
:10E64000A378002B40F08481E378C3B1F01C1F282D
:10E6500000F28181711C14AFB21C17FA81F13744AA
:10E6600014AE16FA82F24FF0020C86B2012007F8BF
:10E6700040CCADF80C6001F8400C02F8403C6268F8
:10E68000C2B1F71C1F2F00F26681701C14ABB11CC5
:10E6900013FA80F0334414AE16FA81F192F9002097
:10E6A000ADF80C7002260A2703F8406C00F8407C95
:10E6B00001F8402C2389002B40F0B881238A002BDD
:10E6C00040F0C381238B002B40F08581236A002B0F
:10E6D00045D0BDF80C20971D1F2F00F23C811988F2
:10E6E000052940F290806FF4486801EB080080B281
:10E6F0004FF27D36B04240F286805888052840F2BD
:10E7000082806FF4486C84441FFA8CFCB4457AD93B
:10E710004FF6FF76B14203D0B04201D0814272D8A9
:10E7200014A98E18501C11FA80F04FF0050C911CA2
:10E7300006F840CC89B2122600F8406CADF80C10F7
:10E740001888ADF80C7004AF7E1878540432000AB3
:10E75000707092B25B88BB543A441B0A5370666A6D
:10E7600096B3B188BDF80C30881C9A1C87181F2FEF
:10E7700000F2F180FE2800F2EE8014AF1F44581C16
:10E780000DF1500C1CFA80F0033107F8401CFF21FA
:10E7900000F8401CADF80C20318892B204AFB818D4
:10E7A000B954090A41700433B28898B2ADF80C002C
:10E7B00052B1B16839B3384400F0D2FEBDF80C3024
:10E7C000B2881344ADF80C3094F82C10002940F0B6
:10E7D0004B812378002B40F09D8104ACDDB1EB78B8
:10E7E0008BB928460CA90DF10E02FFF763FC58B94E
:10E7F0009DF80E300CAA20469DF80C10FFF79AFBEE
:10E8000015B0BDE8F083072015B0BDE8F083ADF882
:10E810000C00002DE3D12B46ADF80E502A46EAE756
:10E8200014AE30443144112700F8407C102614A85F
:10E8300001F8406C1844D17B00F8401C0146907BE5
:10E8400001F83F0C14A91944507B01F83E0C14A99F
:10E850001944107B01F83D0C14A91944D07A01F831
:10E860003C0C14A91944907A01F83B0C14A91944E2
:10E87000507A01F83A0C14A91944107A01F8390CAD
:10E8800014A91944D07901F8380C14A919449079C5
:10E8900001F8370C14A91944507901F8360C14A961
:10E8A0001944107901F8350C14A91944D07801F8ED
:10E8B000340C14A91944907801F8330C03F10E01BB
:10E8C00014A8ADF80C100144507801F8400C03F185
:10E8D0000F0114A8ADF80C100144127801F8402C77
:10E8E0003344ADF80C309EB2A0E606F109031F2BAD
:10E8F00031D80CA8FFF71CFB002885D1BDF80C30DF
:10E9000014A95E1C9A1C92B20B4411FA86F604AF4D
:10E91000B81808211B2703F8401CADF80C200DF196
:10E920003101062206F8407C00F01AFEBDF80C20EA
:10E930009DF83010931D9BB2002940F0268114A849
:10E94000034403F8401CD31D9EB2ADF80C6077E67B
:10E95000331D1F2B1CD90C2015B0BDE8F0833046A9
:10E96000022301215EE614AB711C13FA81F13344DA
:10E97000022703F8407C1C20F319013A01F8400CEF
:10E980009BB2032A3FF63FAFDFE802F04A443E3431
:10E990000CA8FFF7D1FA00287FF436AFBDF80C3091
:10E9A000BDF8300014AE591C16FA81F106EB030CC9
:10E9B0009A1C043392B204AF9EB24FF0030E192397
:10E9C0000CF840EC01F8403CBB18010AB854ADF813
:10E9D0000C60597038E61F2203ABCDE900321421D8
:10E9E00004AB152204F11800FFF7ACFA00283FF43D
:10E9F0006DAE09E714AA1344032203F8402CF31C5C
:10EA00009EB2ADF80C6016E614AA1344022203F875
:10EA1000402CF4E714AA1344012203F8402CEEE73B
:10EA200014AA1344002203F8402CE8E71F2203AB8A
:10EA3000CDE90032022104AB062204F10800FFF701
:10EA400081FA00283FF43AAEDEE61F2203ABCDE99F
:10EA50000032032104AB072204F11000FFF772FA21
:10EA600000283FF42FAECFE6D4F82880B8F1000F8D
:10EA70003FF4C9AEB8F804200232FE2A3FF66BAF6D
:10EA8000BDF80C30002604AF4FF016090DF1500C04
:10EA90009C44581C01320DF1500E0CF8402C1EFA0B
:10EAA00080F09A1C92B200F8409CADF80C20B8F8A7
:10EAB0000000B8543A44000A50700433B8F804C057
:10EAC0009BB26246F818ADF80C30BCF1000F11D0C3
:10EAD000D8F808301946002B3FF495AE00F040FD01
:10EAE000BDF80C30B8F8042094F82C1013449BB2F5
:10EAF000ADF80C300136F6B28E4206EB4608BFF494
:10EB000068AEA26A02EB8808B8F804200232FE2A36
:10EB1000BCD920E72288012A3FF475AEBDF80C204D
:10EB2000901C1F283FF617AF012B04D163780344D4
:10EB30001F2B3FF610AFC2F11D0314A99BB204AF07
:10EB400021F8203D3844FFF7F9F900287FF45CAE46
:10EB50002278022A1FD0012A24D0ADF830300820B4
:10EB6000FE2B3FF6F8AEBDF80C2014AC511CA618D5
:10EB700014FA81F102321A44013306F8403C3C4653
:10EB8000ADF80C2001F8400C28E614A90B44012133
:10EB900003F8401CD7E6BDF830209342DDD313467E
:10EBA0000920DDE762789342D7D3ADF830201346D1
:10EBB0000820D5E775DF704776DF70477ADF70474A
:10EBC0007BDF7047184B18884FF6FF73984220D0B0
:10EBD00010B5164A164C1378217B0133DBB29942EB
:10EBE00082B013700CD2237C0021117093B9636939
:10EBF00023B102A8002200F8042D984702B010BDEE
:10EC00000C49FFF7D7FF0028F8D0A369002BF4D1F7
:10EC1000F4E770473B21FFF7CFFF0028E7D0A36957
:10EC2000002BE4D09847E2E7122400206024002063
:10EC3000142400205824002070B51D4B1D4A5B8809
:10EC40001188994282B00FD852889A420CD31A4B3D
:10EC50005B6923B102A8012200F8042D9847174CE4
:10EC60000023237002B070BD144C22785AB1124BAD
:10EC70005B6923B102A8002200F8042D9847002305
:10EC8000237002B070BD0C4D0D48D5E90113067814
:10EC90000C48002E18BF1946FEF758F90028EED090
:10ECA000AB69002BEBD098470023237002B070BDF6
:10ECB0005024002058240020142400201024002078
:10ECC0006024002030240020F8B505460FCD144CF8
:10ECD000144F0FC4064695E80700002384E8070098
:10ECE0003B70B6B13068104B716803C3A3F10800E4
:10ECF000FFF764FF90B90D490D4C0E4A0E480023F2
:10ED00004FF6FF750D8023701946BDE8F840FEF7F9
:10ED10000BB90548FFF754FF0028ECD0F8BD00BF41
:10ED20001424002010240020582400201224002045
:10ED300060240020C5EB0100BCF5010070B503881C
:10ED4000112B82B03BD024D9122B08D0502B04D1E8
:10ED50003B4CC288E3899A4251D002B070BD083062
:10ED600003C8384B384A83E8030011885B8899420E
:10ED700038D9364C2278002A50D0314B5B6923B108
:10ED800002A8002200F8042D98470023237002B047
:10ED900070BD102BE1D12E49294C2A4B2D4DE48911
:10EDA00000F118028088088092E80300002283E8BE
:10EDB00003002A70002CD0D1FFF73EFFCDE7244995
:10EDC000244B25484FF6FF7400220C801A70FEF782
:10EDD00023F90028C1D01A4B9B69002BBDD098475E
:10EDE00002B070BD52889A42C3D3154B5B6923B100
:10EDF00002A8012200F8042D9847144CC5E7038AA5
:10EE0000022BAAD1837CDB07D6D41348FEF704F982
:10EE10000028A2D0A369002BE1D19EE7084D0D4840
:10EE2000D5E9011306780C48002E18BF1946FEF7E5
:10EE30008DF80028A9D0AB69002BA6D09847A4E78D
:10EE400014240020502400205824002010240020E6
:10EE5000122400206024002030240020A0DF70470E
:10EE6000A2DF7047A6DF704763DF70470B88112B66
:10EE70000FD0502B05D0102B00D070478B88838289
:10EE8000704710B44388CC889C4206D05DF8044B90
:10EE900070474FF6FF73838270470B8A012BF5D1C1
:10EEA0008369002BF2D0897C5DF8044B184700BFC2
:10EEB000F0B54FF6FF728282674B0A6882610546A1
:10EEC0000FCB95B004AC84E80F00204605F1120189
:10EED000FFF7CAFF044610B1204615B0F0BD14A9D3
:10EEE00041F2235321F8483D2A46AB7C8DF80A3085
:10EEF0000120FFF7B3FF04460028EDD1214603228D
:10EF00006846FDF70FFB9DF80230012666F34203C9
:10EF1000214641F211171C220DA88DF80230ADF8E0
:10EF20000070FDF7FFFA9DF8343095F812C00E948A
:10EF300043F01203214641F22457032201A8CDE9F0
:10EF4000104413948DF834308DF80EC0ADF80C7069
:10EF5000CDF848D0FDF7E6FA9DF806309DF804C0DC
:10EF60009DF8057066F3420364F3C30364F304136E
:10EF700064F3030766F3030C64F3000366F3071CF2
:10EF800064F307172146142208A88DF806308DF87F
:10EF900004C08DF80570FDF7C5FA01AF0C9408AAFE
:10EFA00003AC0DA905F10A0328880894CDE9097678
:10EFB000ADF82C60FFF754FF044600288CD10146C1
:10EFC0001C220DA8FDF7AEFA9DF83430A87C8DF810
:10EFD0000E0043F00A03214641F22557032201A8FF
:10EFE0000E94CDE91044CDE912448DF83430ADF8DB
:10EFF0000C70FDF797FA9DF806309DF804009DF817
:10F00000057066F3420364F3C30366F3030064F31D
:10F01000041366F3071066F3030764F30003214645
:10F0200014228DF8040066F3071708A88DF806303F
:10F030008DF80570FDF776FAAB1C28880C9403ADAB
:10F04000089508AA0DA901ADCDE90956ADF82C60C7
:10F05000FFF706FF04463FE7C0F5010070B588B032
:10F0600005468DF80710012404A810220021ADF8F0
:10F070000E40FDF757FA6E89A88A8DF812400DF1FF
:10F0800007020DF10E0304A9ADF81060CDE90632B8
:10F09000FFF7E8FE08B070BD30B4974B1B78062B25
:10F0A0001BD0964AD2F8883043F47003C2F88830F7
:10F0B000BFF34F8FBFF36F8F4FF01023D3F80022B1
:10F0C000002AC0F2E880D3F80432002BC0F2E380BB
:10F0D0008B4B8C4A1A6030BC70478B4B1B681D07EA
:10F0E000DFD18A4B1B6803F0F003302B02D1884B31
:10F0F000884A1A60854B1B6803F0F002302A70D0F2
:10F1000003F0E003402B6CD0804B1B6803F0F0034E
:10F11000302B00F08B807D4B1B6803F0F002302A0F
:10F1200070D003F0E003402B6CD0784B1B6803F0E9
:10F13000F003302B00F0A180744B1B6803F0F00348
:10F14000302B00F08380714B1B6803F0F003502BD1
:10F15000A7D14FF08052704BD2F80414C3F8201599
:10F16000D2F80814C3F82415D2F80C14C3F82815E3
:10F17000D2F81014C3F82C15D2F81414C3F83015B3
:10F18000D2F81814C3F83415D2F81C14C3F840157B
:10F19000D2F82014C3F84415D2F82414C3F8481543
:10F1A000D2F82814C3F84C15D2F82C14C3F8501513
:10F1B000D2F83014C3F85415D2F83414C3F86015DB
:10F1C000D2F83814C3F86415D2F83C14C3F86815A3
:10F1D000D2F84014C3F86C15D2F84424C3F8702553
:10F1E0005FE74E4B444A1B6812784D49C3F34233E4
:10F1F000062A0B607FF455AF434B1B681C077FF456
:10F2000050AF81E73C4B1B784FF080420021062B2A
:10F21000C2F80C11C2F81011C2F838157FF441AFD2
:10F22000394B1B6819077FF43CAF7EE73D4A3249F2
:10F23000D368097823F080730629D3607FF431AF57
:10F24000314B1B6818077FF42CAF64E72A4B364C10
:10F250001A7836493648374B0525256001250D605B
:10F2600000243F21062A046019607FF41AAF264B60
:10F270001B681B077FF415AF65E71F4B2E4A1B78F1
:10F280000321062B11607FF40CAF1F4B1B681A077C
:10F290007FF407AF50E7294B0122C3F80425D3F8C8
:10F2A0000024002AFBD04FF0102315222349C3F875
:10F2B0000022D1F80034002BFBD04FF01022152192
:10F2C0001E4BC2F80412D3F80024002AFBD00022FF
:10F2D0001A49C3F80425D1F80034002BFBD0BFF342
:10F2E0004F8F0649164BCA6802F4E0621343CB60A5
:10F2F000BFF34F8F00BFFDE7E00F00F000ED00E02F
:10F30000EC2000200090D003E40F00F0E80F00F0A4
:10F3100074C007400DF0ADBA00C0004044020010B8
:10F320003C050040F0ED00E01056004088560040DB
:10F330001856004014560040A005004000E001406F
:10F340000400FA0552DF704710DF704760DF704736
:10F3500061DF704708B5FDF709FA08BD2DE9F043F4
:10F36000DFF8A080254FD8F800203B6883B0002A42
:10F370003FD113B903B0BDE8F083012601ADDFF83A
:10F3800088901F4C2268B9F80030ADF80430104660
:10F390002946FFF7DDFF052806D0F0B910463B6887
:10F3A0009847F6B10126EDE70124002EE2D1284668
:10F3B000FFF7C8FF05280CD0A8B9D8F8003001988D
:10F3C0009847A4B12846FFF7BDFF05284FF0010478
:10F3D000F2D1002CCED10126D1E7FDF7B7F9002EEE
:10F3E000E0D10024E3E7FDF7B1F9002CEAD10026D3
:10F3F000C5E7B3FA83F4640901ADD8E764240020BB
:10F40000742400207024002062240020F1B111F047
:10F41000030F1BD138B5124C124D2160124C134909
:10F420002A802360FFF790FF78B9114B114A012120
:10F43000197092F81633C3F341138B420DD90E4B5A
:10F44000996829B94FF48003136038BD07207047CD
:10F450001A6842F480021A6038BD42F2020038BDD8
:10F4600074240020622400206824002055F3010049
:10F470006C24002000E100E078240020034618B14D
:10F48000024A0020136070470E2070476424002059
:10F4900008B5094B1B6833B1984700B908BDBDE8F2
:10F4A0000840FDF753B9054B1B78002BF6D0BDE89B
:10F4B0000840FFF753BF00BF682400206C240020E1
:10F4C00070B5144605460E46104600211422FDF77D
:10F4D00029F8227B2672002363F300020121657262
:10F4E00022732361218005B1A172002070BD00BF8D
:10F4F00082B0034B0193019B002002B0704700BF14
:10F500008020002000B583B0054B019302A9019B28
:10F5100041F8083DFFF71AFF03B05DF804FB00BF98
:10F52000802000200649074A074B9B1A03DD043B55
:10F53000C858D050FBDCFFF7AFFDFCF781FF00009F
:10F540003CF6010080200020F8200020FEE7FEE7C6
:10F55000FEE7FEE7FEE7FEE7FEE7FEE7FEE7FEE783
:10F5600010B5431E0A44914200D110BD11F8014B61
:10F5700003F8014FF7E7034613F8012B002AFBD1EC
:10F58000181A013870470000F8B500BFF8BC08BC75
:10F590009E467047F8B500BFF8BC08BC9E46704751
:10F5A000802000201C210020010000074E6F7264A3
:10F5B00069635F426C696E6B790000003024002043
:10F5C00023D1BCEA5F782315DEEF121200000000A1
:10F5D000000000000000000000000000000000002B
:10F5E000000000000000000000000000000000001B
:10F5F000000000000000000000000000000000000B
:10F6000000000000000000000000000000000000FA
:10F6100000000000000000000000000000000000EA
:10F6200000000000000000000000000000000000DA
:04F6300000000000D6
:08F634000CCEFF7F0100000075
:10F63C0000000000F0F5010010F60100D0F501000B
:10F64C0000000000000000000000000000000000AE
:10F65C00000000000000000000000000000000009E
:10F66C00000000000000000000000000000000008E
:10F67C00000000000000000000000000000000007E
:10F68C00000000000000000000000000000000006E
:10F69C000D00030009DC0100FFFF00000090D00307
:08F6AC0025C4010001C40100A6
:040000031000F525CF
:00000001FF
